:020000041000EA
:1000000000B5324B212058609868022188439860DF
:10001000D860186158612E4B002199600221596106
:100020000121F02299502B49196001219960352056
:1000300000F044F80222904214D00621196600F024
:1000400034F8196E01211966002018661A6600F04E
:100050002CF8196E196E196E052000F02FF8012189
:100060000842F9D1002199601B49196000215960AB
:100070001A491B48016001219960EB211966A021F2
:10008000196600F012F800219960164914480160C1
:100090000121996001BC002800D000471248134993
:1000A000086003C880F30888084703B5996A0420EC
:1000B0000142FBD001200142F8D103BD02B5186610
:1000C0001866FFF7F2FF186E186E02BD00000240BE
:1000D000000000180000070000035F00212200005C
:1000E000F4000018222000A00001001008ED00E03C
:1000F00000000000000000000000000074B24E7A12
:1001000000200420F7010010C3010010C5010010F9
:10011000C1010010C1010010C1010010C101001097
:10012000C1010010C1010010C1010010C701001081
:10013000C1010010C1010010C9010010CB01001065
:10014000CD010010CD010010CD010010CD01001037
:10015000CD010010CD010010CD010010CD01001027
:10016000CD010010CD010010CD010010CD01001017
:10017000CD010010CD010010CD010010CD01001007
:10018000CD010010CD010010CD010010CD010010F7
:10019000CD010010CD010010CD010010CD010010E7
:1001A000CD010010CD010010CD010010CD010010D7
:1001B000CD010010CD010010CD010010CD010010C7
:1001C00000BE00BE00BE00BE00BE00BE00F04BF888
:1001D000103800BEF2EB887150DF051078DF051093
:1001E0003402001090A31AE700202149086006C8D5
:1001F00081F3088810471F48006800282FD10DA4FC
:100200000ECC002902D000F012F8F9E71A491B4A77
:10021000002000E001C19142FCD1194988471949E9
:1002200088471949884700BEFDE701C901C29A42C3
:10023000FBD3704778DF0510C0000020302100207C
:10024000E8FF05100000042000000420E8FF05106E
:1002500000100420001004200000000070470B482C
:1002600010F07EF80047EFF30580C0B27047000041
:1002700008ED00E0000000D030210020F81102203D
:100280002DE3001091CE001061E4001057560000DD
:1002900006005250ABB3605338320510060052507E
:1002A000861C030248320510060052505422A29DBB
:1002B0005032051005005250DE65F468E8FF051065
:1002C000F8B5C0460448054B10B5834203D0044B33
:1002D000002B00D0984710BD302100203021002095
:1002E0000000000006480749091A8B10C90FC918F9
:1002F00010B5491003D0044B002B00D0984710BD17
:1003000030210020302100200000000010B5074CF3
:100310002378002B09D1FFF7D5FF054B002B02D026
:10032000044800E000BF0123237010BD68230020B3
:100330000000000008150510054B10B5002B03D078
:100340000449054800E000BFFFF7CCFF10BDC046E0
:10035000000000006C2300200815051008007047FD
:10036000044B10B518680833984201D011F0EAF830
:1003700010BDC046003D0020044B10B5186808337E
:10038000984201D011F0DEF810BDC046D03C0020EC
:10039000044B10B518680833984201D011F0D2F818
:1003A00010BDC046E83C0020044B10B51868083367
:1003B000984201D011F0C6F810BDC046603D002043
:1003C000044B10B518680833984201D011F0BAF800
:1003D00010BDC046483D0020044B10B518680833D6
:1003E000984201D011F0AEF810BDC046303D00205B
:1003F000044B10B518680833984201D011F0A2F8E8
:1004000010BDC046183D0020044B10B518680833D5
:10041000984201D011F096F810BDC046B83C0020BB
:10042000044B10B518680833984201D011F08AF8CF
:1004300010BDC04624400020044B10B51868083396
:10044000984201D011F07EF810BDC0463C4000201B
:10045000044B10B518680833984201D011F072F8B7
:1004600010BDC04654400020044B10B51868083336
:10047000984201D011F066F810BDC0466C400020D3
:10048000044B10B518680833984201D011F05AF89F
:1004900010BDC046943F0020044B10B518680833C7
:1004A000984201D011F04EF810BDC046AC3F00207C
:1004B000044B10B518680833984201D011F042F887
:1004C00010BDC046DC3F0020044B10B5186808334F
:1004D000984201D011F036F810BDC046C43F00204C
:1004E000044B10B518680833984201D011F02AF86F
:1004F00010BDC046F43F0020044B10B51868083307
:10050000984201D011F01EF810BDC0460C400020EA
:10051000044B10B518680833984201D011F012F856
:1005200010BDC04620410020044B10B518680833A8
:10053000984201D011F006F810BDC04638410020A5
:10054000044B10B518680833984201D010F0FAFF38
:1005500010BDC046703C0020044B10B5186808332D
:10056000984201D010F0EEFF10BDC046A03C002024
:10057000044B10B518680833984201D010F0E2FF20
:1005800010BDC046883C0020044B10B518680833E5
:10059000984201D010F0D6FF10BDC046583C002054
:1005A000044B10B518680833984201D010F0CAFF08
:1005B00010BDC046743E0020044B10B518680833C7
:1005C000984201D010F0BEFF10BDC0468C3E002006
:1005D000044B10B518680833984201D010F0B2FFF0
:1005E00010BDC046A43E0020044B10B51868083367
:1005F000984201D010F0A6FF10BDC046BC3E0020BE
:10060000044B10B518680833984201D010F09AFFD7
:1006100010BDC046D43E0020044B10B51868083306
:10062000984201D010F08EFF10BDC046083E002059
:10063000044B10B518680833984201D010F082FFBF
:1006400010BDC0465C3E0020044B10B5186808334E
:10065000984201D010F076FF10BDC046203E002029
:10066000044B10B518680833984201D010F06AFFA7
:1006700010BDC046F03D0020044B10B5186808338B
:10068000984201D010F05EFF10BDC046383E0020F9
:10069000044B10B518680833984201D010F052FF8F
:1006A00010BDC046F83E0020044B10B51868083352
:1006B000984201D010F046FF10BDC046103F002008
:1006C000044B10B518680833984201D010F03AFF77
:1006D00010BDC046283F0020044B10B518680833F1
:1006E000984201D010F02EFF10BDC046403F0020C0
:1006F000044B10B518680833984201D010F022FF5F
:1007000010BDC046583F0020044B10B51868083390
:10071000984201D010F016FF10BDC0465041002095
:10072000044B10B518680833984201D010F00AFF46
:1007300010BDC04668410020044B10B5186808334E
:10074000984201D010F0FEFE10BDC0469C40002033
:10075000044B10B518680833984201D010F0F2FE2F
:1007600010BDC046FC400020044B10B5186808338B
:10077000984201D010F0E6FE10BDC046CC400020EB
:10078000044B10B518680833984201D010F0DAFE17
:1007900010BDC046E4400020044B10B51868083373
:1007A000984201D010F0CEFE10BDC046B4400020EB
:1007B000044B10B518680833984201D010F0C2FEFF
:1007C00010BDC04684400020044B10B518680833A3
:1007D000984201D010F0B6FE10BDC046783D002012
:1007E000044B10B518680833984201D010F0AAFEE7
:1007F00010BDC046C03D0020044B10B5186808333A
:10080000984201D010F09EFE10BDC046A83D0020C9
:10081000044B10B518680833984201D010F092FECE
:1008200010BDC046D83D0020044B10B518680833F1
:10083000984201D010F086FE10BDC046903D0020C9
:10084000044B10B518680833984201D010F07AFEB6
:1008500010BDC0467C3F0020F8B505000E00541ABC
:1008600010D40BD0200010F065FE071922003100D3
:100870002860AF6010F058FE6F60F8BD002704607C
:100880008460F9E7014829F0E9FCC0460815051025
:1008900070B505000E0082B000291DD0541A0194D5
:1008A0000F2C0BD80068012C1BD10B780370019C16
:1008B000286800236C60035502B070BD002201A9B6
:1008C00035F088FB019B2860AB602200310010F0FE
:1008D0002BFE019C2868ECE7002A05D10024006863
:1008E000E7E7002CE5D0F0E7014829F09FFCC0467F
:1008F0003C150510F0B5C646561A04000D00170049
:1009000000B5B310002E14DB0020002B02D0300005
:1009100010F010FE831998462060A360AF4203D008
:100920003200290010F000FE4346636004BC90468C
:10093000F0BD014829F092FC08150510F0B507003C
:10094000083704000E0083B00760002925D0080096
:1009500046F0DAFA0500030001900F280CD80128B0
:1009600007D132782272002220006360FA5403B06B
:10097000F0BD0028F7D008E00022200001A935F0E2
:1009800029FB0700019B2060A36038002A0031008A
:1009900010F0CAFD019B2768E5E7014829F046FCF5
:1009A0003C15051070B50D4E34687568AC420AD020
:1009B00023002068083398420BD0183410F0C2FD91
:1009C000A542F5D13568002D02D0280010F0BAFDFF
:1009D00070BD1834A542EBD1F4E7C046EC3E0020D0
:1009E00070B50D4E34687568AC420AD0230020689B
:1009F000083398420BD0183410F0A4FDA542F5D16D
:100A00003568002D02D0280010F09CFD70BD183410
:100A1000A542EBD1F4E7C046703F002070B50D4E03
:100A200034687568AC420AD02300206808339842C5
:100A30000BD0183410F086FDA542F5D13568002D95
:100A400002D0280010F07EFD70BD1834A542EBD115
:100A5000F4E7C046503E002070B50D4E346875680E
:100A6000AC420AD023002068083398420BD01834D7
:100A700010F068FDA542F5D13568002D02D02800A0
:100A800010F060FD70BD1834A542EBD1F4E7C0460C
:100A90008041002070B50D4E34687568AC420AD0B4
:100AA00023002068083398420BD0183410F04AFD18
:100AB000A542F5D13568002D02D0280010F042FD86
:100AC00070BD1834A542EBD1F4E7C04614410020B4
:100AD000F0B54746CE4680B5571A9046FA109300B7
:100AE0009B180C0019015B1819025B1819045B189C
:100AF0005B009B18264A060083B0934245D8002528
:100B0000002B03D0380010F015FD0500EF193560FB
:100B1000B760A0450BD12AE0012F33D11B782B728F
:100B2000002318346F60C3551835A0451FD0280026
:100B300023680830994667682860002B1DD001970C
:100B40000F2FE9D90022280001A935F043FA019BB3
:100B50002860AB603A00494610F0E6FC0023019F94
:100B6000286818346F60C3551835A045DFD175600B
:100B700003B00CBC90469946F0BD002FD0D005487C
:100B800029F054FB002FCBD0E4E7034829F066FBA3
:100B9000555555053C1505100815051008B4F0B558
:100BA0001C2382B000AF84B06E46FB1804CB040057
:100BB000102130003B600FF075FB0500200008306D
:100BC00020607D600F2D10D8012D0BD1337823725A
:100BD00000236560BD464355200002B0F0BC08BC50
:100BE00001B01847002DF3D007E000222000391D86
:100BF00035F0F0F97B682060A3602A00310010F026
:100C000093FC7D682068E3E7F0B587B02D22502182
:100C1000684602AF009735F0FBF93A4C019A200084
:100C2000009934F049FD036805000C3B1B68C318AC
:100C3000DE6F002E64D0337F002B3AD02723F15C87
:100C4000280034F0B3FC34F021FC342220002E497B
:100C500034F032FD23680C3B1B68E318DD6F002D78
:100C60004ED02B7F002B31D02723E95C200034F0BD
:100C70009DFC34F00BFC2000019A009934F01CFD1F
:100C8000036804000C3B1B68C318DD6F002D37D0D0
:100C90002B7F002B27D02723E95C200034F086FC33
:100CA00034F0F4FB0098B84201D010F04BFC07B0D0
:100CB000F0BD30001DF06AFD3368144A9B690A21BB
:100CC0009342BDD0300098470100B9E728001DF0DD
:100CD0005DFD2B680D4A9B690A219342C6D028000E
:100CE00098470100C2E728001DF050FD2B68074A15
:100CF0009B690A219342D0D0280098470100CCE795
:100D000029F084FA80390020D01505105D03001009
:100D100070B5214C0C21200013F06AFA002805D18F
:100D20000D21200013F064FA002825D01B4C252249
:100D300020001B4934F0C0FC23680C3B1B68E318FF
:100D4000DD6F002D25D02B7F002B08D02723E95CF9
:100D5000200034F02BFC34F099FB012070BD2800FA
:100D60001DF014FD2B680F4A9B690A219342EFD0B6
:100D7000280098470100EBE70E21200013F038FA15
:100D80000028D3D10F21200013F032FA0028E5D03B
:100D9000CCE729F03BFAC0463C0E02208039002007
:100DA000081605105D030010F0B5C6460D000221BF
:100DB000036800B50C3B1A680600821891601C6835
:100DC00075230419E35C82B0002B27D074233022F2
:100DD000E25433680C3B1A684A23B218D16899432D
:100DE0000B0008210B43D3602B6890CBBC4210D082
:100DF0006B46DD1D202398462178300034F030FE0C
:100E000043460122290001342B7034F055FCA742DF
:100E1000F2D1300002B004BC9046F0BDE76F002F65
:100E200012D03B7F002B03D075230122E254CDE783
:100E300038001DF0ABFC3B68044A9B699342F3D039
:100E4000202138009847EFE729F0E0F95D03001012
:100E5000164B10B50ACB5B1A9A10072B21D94B6899
:100E6000002B0AD1124A1178002905D0D021802008
:100E7000090680048861137010BD0D4B1A78002A92
:100E800007D0D022802112068904916100221A70B5
:100E9000F2E7D022802112068904516101221A70E2
:100EA000EAE70121034829F0F1F9C046100F0220BA
:100EB000270F02206815051070B51F4C1022200066
:100EC0001E4934F0F9FB1E4B1B68002B25D0012B6B
:100ED00029D0002220001B4934F0EEFB23680C3B94
:100EE0001B68E318DD6F002D23D02B7F002B07D06C
:100EF0002723E95C200034F059FB34F0C7FA70BDB9
:100F000028001DF043FC2B680F4A9B690A2193427D
:100F1000F0D0280098470100ECE7042220000B499C
:100F200034F0CAFBD5E708222000094934F0C4FB9D
:100F3000CFE729F06BF9C046803900203016051044
:100F40001C0E02201C3705105D030010EC29051053
:100F500044160510F0B5DE4657464E464546E0B508
:100F60000E4CF5B02378BFF35B8FDB0701D400F0A4
:100F7000C7FC0B4F0025380014F05AFF14200CF06A
:100F8000A7FD20239846074C074E3800062D01D9AF
:100F900000F032FCAB00F3589F46C046B825002055
:100FA000BC0E0220544500202817051015F010F93A
:100FB000216863685B1A9A101B2B01D800F0AAFD08
:100FC000886104AB0293EF4B02A899460CCB9C4678
:100FD0004B4662441968FFF75BFCEB4B039A9B1A84
:100FE000212B01D800F082FD2222E84902A835F029
:100FF000B7FAE74B039A180002999B4634F05CFB62
:101000008046380015F0BCF8E24E10223300E24969
:10101000009062A8FFF7C2FD4046639A629934F0DF
:101020004BFB804603680C3B1B684344DB6F9A46CE
:10103000002B01D100F072FD1B7F002B01D100F0CD
:1010400025FC27235246D15C404634F0AFFA34F0F9
:101050001DFA629864AB984201D010F073FA0298BE
:1010600004AB984201D010F06DFA6AAB68934B461E
:101070000CCB9C464B466244196868A8FFF708FCF5
:10108000C14B699A9B1A212B01D800F02FFD222217
:10109000C24968A835F064FA699A6899584634F0EC
:1010A0000BFB8046380015F09DF833001022BA493A
:1010B00000906EA8FFF772FD40466F9A6E9934F06B
:1010C000FBFA804603680C3B1B684344DB6F9A467F
:1010D000002B01D100F022FD1B7F002B01D100F07D
:1010E000E6FB27235246D15C404634F05FFA34F0E9
:1010F000CDF96E9870AB984201D010F023FA689841
:101100006AAB984201D010F01DFA380015F06AF869
:10111000A34B98460ACB5B1A9A10002800D07AE3BA
:101120000B2B01D800F0E5FC886001239D4A5B424F
:10113000136010AB0E934B460EA806CB8A18FFF730
:10114000A7FB914B0F9A9B1A202B01D800F0CEFCE5
:10115000212295490EA835F003FA216863685B1ACD
:101160009A101B2B01D800F0D5FC8B6910228A49FC
:10117000009314A83300FFF711FD0F9F159A0E9BE3
:1011800010A9B8188B4201D100F063FC1099884275
:1011900000D8C8E3149916ADA94201D100F08CFC27
:1011A000169DAC46604500D8D5E30EA835F0D8F9B9
:1011B0000822070091461CAB1A933B68B9444B4583
:1011C00000D1D8E31A93BB681C937B681B934B46F2
:1011D0003B6000237B603B721B9A6B4B9A4201D1B0
:1011E00000F084FC714B012219001AA8994635F0D1
:1011F000B7F90822924622AB209303688244070085
:10120000534501D100F045FC2093836822937B680D
:101210002168219353463B6000237B603B726368E7
:101220005B1A9A10172B01D800F07EFC4B69102234
:101230005949009326A83300FFF7B0FC219F279A55
:10124000209B22A9B8188B4201D100F005FC2299FD
:10125000884200D86BE3269928ADA94201D100F05D
:1012600038FC289DAC46604500D8CCE320A835F07A
:1012700077F90822070092462EAB2C933B68BA44BC
:10128000534500D1CFE32C93BB682E937B682D93FD
:1012900053463B6000237B603B722D9A3A4B9A4247
:1012A00001D100F023FC012249462CA835F058F961
:1012B0000822914634AB32939A4603688144070072
:1012C0004B4500D1D9E33293836834937B6821681E
:1012D00033934B463B6000237B603B7263685B1A31
:1012E0009A10132B01D800F01BFC0B6910220093FD
:1012F00038A833002849FFF751FC339F399A329BB5
:10130000B818534500D1AAE33499884200D80CE3B9
:1013100038993AADA94200D1DFE33A9DAC46604529
:1013200000D82EE332A835F01BF9082207009146B9
:1013300040AB3E933B68B9444B4500D131E33E930B
:10134000BB6840937B683F934B463B6000237B60C8
:101350003F9A3B720C4B9B1A0A2B00D8C6E30B2218
:1013600013493EA835F0FCF80822914646AB449359
:101370000368814407004B4500D184E344938368AC
:10138000469317E0783D0020FFFFFF3F7C160510D5
:1013900080390020A4260510A5020110A016051012
:1013A000100F02202C150020E41605100817051058
:1013B0000C1705107B68216845934B463B60002362
:1013C0007B603B7263685B1A9A100F2B00D894E322
:1013D000CB681022D74900934AA83300FFF7DEFB01
:1013E000459F4B9A449B46A9B8188B4200D13AE3DB
:1013F0004699884200D8A0E24A994CADA94200D152
:1014000061E34C9DAC46604500D8E6E244A835F067
:10141000A7F808220700914652AB50933B68B944A5
:101420004B4500D1E9E25093BB6852937B685193DE
:101430004B463B6000237B60519A3B72BE4B9B1A2C
:10144000042B00D852E30522BC4950A835F088F897
:101450000822914658AB56930368814407004B45D8
:1014600000D104E35693836858937B6821685793AF
:101470004B463B6000237B603B7263685B1A9A10AB
:101480000B2B00D835E38B681022AA4900935CA887
:101490003300FFF783FB579F5D9A569B58A9B818F6
:1014A0008B4200D1DDE25899884200D843E25C9932
:1014B0005EADA94200D103E35E9DAC46604500D815
:1014C00075E256A835F04CF808220700914664AB47
:1014D00062933B68B9444B4500D178E26293BB68A4
:1014E00064937B6863934B463B6000237B603B7255
:1014F000639A914B9A4200D1F8E20122904962A886
:1015000035F02EF8082291466AAB6893036881444F
:1015100007004B4500D1C9E2689383686A937B68F2
:10152000216869934B463B6000237B603B72636894
:101530005B1A9A10072B00D8E8E24B6810227D490D
:1015400000936EA83300FFF729FB699F6F9A689B91
:101550006AA9B8188B4200D187E26A99884200D8FC
:10156000E7E16E9970ADA94200D1AFE2709DAC4643
:10157000604500D85DE268A834F0F2FF0700082259
:1015800094460AAB089399463B68BC44654663455C
:1015900000D185E20893BB680A937B680993002316
:1015A0003D603B726E987B6070AB984201D00FF04B
:1015B000C9FF68986AAB984201D00FF0C3FF6298E8
:1015C00064AB984201D00FF0BDFF5C985EAB9842CF
:1015D00001D00FF0B7FF569858AB984201D00FF0EA
:1015E000B1FF509852AB984201D00FF0ABFF4A9830
:1015F0004CAB984201D00FF0A5FF449846AB9842FF
:1016000001D00FF09FFF3E9840AB984201D00FF001
:1016100099FF38983AAB984201D00FF093FF329877
:10162000504501D00FF08EFF2C982EAB984201D080
:101630000FF088FF269828AB984201D00FF082FF68
:10164000209822AB984201D00FF07CFF1A981CAB77
:10165000984201D00FF076FF149816AB984201D053
:101660000FF070FF0E9810AB984201D00FF06AFF98
:1016700043460ACB5B1A9A100B2B00D839E28B68D1
:10168000012B00D132E123686268934200D138E235
:101690001B6810222749009368A83300FFF77EFAE1
:1016A0000123002200930021254B68A834F08EFE10
:1016B000050070AB6E93036808350400AB4200D19F
:1016C0000EE26E9383687093636808A86F9300239B
:1016D0002560237263606F9A6E9934F041FF6E98B3
:1016E00070AB984201D00FF02DFF68986AAB98421A
:1016F00001D00FF027FF5846099A089933F0DCFF14
:10170000036804000C3B1B68C318DD6F002D00D17B
:1017100004E22B7F002B00D1DAE02723E95C2000D4
:1017200033F044FF33F0B2FE089848450AD00FF07A
:1017300009FF07E0A5020110FFFFFF3F1817051082
:101740001823051075B03CBC90469946A246AB469E
:10175000F0BD14F033FD216863685B1A9A10172BF3
:1017600000D8E1E148610135FFF70FFC14F01CFDE2
:10177000216863685B1A9A10132B00D8D0E10861C6
:101780000135FFF702FC14F005FD216863685B1A60
:101790009A100F2B00D8B0E1C8600135FFF7F5FBB8
:1017A00014F0EEFC216863685B1A9A100B2B00D8CA
:1017B0009FE18860380014F015FD0028D3D021681F
:1017C00063685B1A9A100B2B00D892E18B68002B90
:1017D00000D0B4E00C338B600135FFF7D6FB14F07A
:1017E000C5FC216863685B1A9A10072B00D88DE14D
:1017F00048600135FFF7C9FB14F0AEFC236862684E
:101800009A4200D17DE11860062D01D1FFF7D9FB86
:101810000135FFF7BAFB0B2B00D86AE101238B607F
:101820006AAB68934B460CCB9C464B4662441968A6
:1018300068A8FFF72DF8BE4968A834F0BBFE699A86
:101840006899584633F038FF8246380014F0E6FCB9
:1018500033001022B74900906EA8FFF79FF96F9AE6
:101860006E99504633F028FF33F000FF6E9870AB4E
:10187000984201D00FF066FE68986AAB984201D09A
:101880000FF060FE380014F0C9FC4EE450461CF026
:101890007DFF53461B68A84A9B690A21934201D1E8
:1018A000FFF7D2FB504698470100FFF7CDFB5046AB
:1018B0001CF06CFF53461B689F4A9B690A219342A8
:1018C00001D1FFF711FC504698470100FFF70CFCCF
:1018D00028001CF05BFF2B68974A9B690A21934202
:1018E00000D11CE728009847010018E7934B1B68BC
:1018F000002B00D1A5E0924908A834F05BFEFAE67F
:10190000200016F0D3FA002801D1FFF732FB8D49F1
:101910008D48FFF713F8200016F0E4FA8B4842F0E8
:1019200025FCFFF726FB14993FE43899FAE4269941
:101930009CE46E991FE65C99C3E54A9966E50C2B19
:1019400000D183E000DC0EE742460C3B13438B6082
:101950000135FFF71AFB00220097002114A834F08C
:1019600035FD0822070091461CAB1A933B68B94429
:101970004B4500D026E4494608321CA80FF0D4FDA0
:1019800023E400220097002138A834F01FFD08222C
:101990000700914640AB3E933B68B9444B4500D0AD
:1019A000CDE44946083240A80FF0BEFDCAE400224B
:1019B000009700215CA834F009FD08220700914639
:1019C00064AB62933B68B9444B4500D086E5494619
:1019D000083264A80FF0A8FD83E5002200970021DB
:1019E0004AA834F0F3FC08220700914652AB50930A
:1019F0003B68B9444B4500D015E54946083252A82A
:101A00000FF092FD12E500220097002126A834F085
:101A1000DDFC0822070092462EAB2C933B68BA44AB
:101A2000534500D02FE4514608322EA80FF07CFD1C
:101A30002CE40097002200216EA834F0C7FC0700B8
:101A40009DE5434908A834F0B5FD54E62C238B608E
:101A50007EE70F21FFF79BFB0F21FFF7F9FB0F211B
:101A600053E40F2120E50F21C3E40F2176E5494619
:101A7000083258A80FF058FDF7E44946504608329E
:101A80000FF052FD22E44946083246A80FF04CFD03
:101A900090E45146083222A80FF046FDFFF7B7FB4D
:101AA0001022614648460FF03FFD76E54946083270
:101AB0006AA80FF039FD32E50F25AC46FFF772FB3F
:101AC0000F25AC46FAE40F25AC469CE40F25AC4646
:101AD0004EE50F25AC46FFF7C6FB0F25AC461EE4CE
:101AE0001022290070A80FF01FFDEDE5194828F01D
:101AF000B5FB0221184828F0C9FB0321164828F03D
:101B0000C5FB00221448110028F0C0FB0121124837
:101B100028F0BCFB0621104828F0B8FB28F076FB23
:101B200004210D4828F0B2FB05210B4828F0AEFB3C
:101B3000C4160510A50201105D0300102C1500202D
:101B40002017051050160510783D0020C907001019
:101B5000241705106416051068150510F0B54546E4
:101B60004E46DE4657460024E0B5824B824D9846ED
:101B7000824E8BB0002C6ED0022C00D1AAE01D2228
:101B80004146280033F098FD736831685A1AD21024
:101B900093009B1818011B1818021B1818041B1817
:101BA0005B009A18A24200D8D9E063001B19DB0041
:101BB000C91806C9280033F07FFD05227049824606
:101BC00033F07AFD6F4B99464A461B685268D21A29
:101BD0009210A24200D8C2E0A700DB5910226A4945
:101BE000009304A8694BFEF7D9FF5046059A049963
:101BF00033F062FD824603680C3B1B685344DB6F85
:101C00009B46002B00D1AEE01B7F002B00D17CE077
:101C100027235A46D15C504633F0C8FC33F036FCDB
:101C2000049806AB984201D00FF08CFC4B464A4614
:101C30001B685268D21A9210A24200D88FE0D95D78
:101C4000534F380014F0EAFB02A90855062C0AD0BD
:101C50000134002C90D100214D4814F0DFFB02AB81
:101C600018700134F5E70722380013F0CBFF0400A9
:101C700014200BF02DFF3A222800464933F01CFDBA
:101C8000002C5CD106224449280033F015FD2B6856
:101C90000C3B1B68EB18DE6F002E64D0337F002BEB
:101CA00050D02723F15C280033F080FC33F0EEFBAA
:101CB000002C07D0380014F0BBF814200BF008FFFC
:101CC000FFF748F920000BB03CBC90469946A2466D
:101CD000AB46F0BD2B4B0ACB5B1A9A100B2B44D9A9
:101CE0002B4F0B7A3800994614F07CFA00281BD150
:101CF0002023494600229943284B38001A6014F0EB
:101D00008DFB02AB98700134A3E758461CF03EFDF2
:101D10005B461B68224A9B690A21934200D17AE7FD
:101D200058469847010076E7380014F077FA002803
:101D3000DED020214B460B4319000122DCE70A22AA
:101D40001849A1E730001CF021FD3368144A9B6953
:101D50000A219342A7D0300098470100A3E7210051
:101D6000114828F093FA28F051FA02210E4828F081
:101D70008DFAC0465817051080390020A026002093
:101D8000BC25051054450020A5020110A42605100D
:101D9000BC0E022078170510501705102C150020D6
:101DA0005D0300104417051068150510F0B58BB0E1
:101DB00000290ADB214B1C685A68121B92109142C1
:101DC00003DA35D24368002B01D10BB0F0BD1C4AB9
:101DD000890006AE0F5915681C00006804960A2B8E
:101DE0001DD8002827D0012B1BD1037804A90B7222
:101DF0000023059434192370124C043320000093FF
:101E000002AAEB330295039715F054FA0498B042F6
:101E100001D00FF097FB200012F0E4F9D5E70A2477
:101E2000DFE70100220030000FF07EFB04A9DFE7AE
:101E3000054828F02BFA054828F0F8F988260020F4
:101E4000441500203C0E0220681505103C150510B5
:101E500070B5050086B000293AD14368002B01D146
:101E600006B070BD6E4602AC019100943000317234
:101E7000D91D34F0F5F9294B019A9B1A062B49D943
:101E800007222749300034F06BFB06CD300034F0D8
:101E900067FB30000221FFF789FF0098A04201D0C4
:101EA0000FF050FB1F4B00941A6802929A88A28090
:101EB0009B79A371072301930023F373300003215F
:101EC000FFF774FF0098A042CAD00FF03BFBC7E7B2
:101ED000154B02AC00941A686E4602929A88300044
:101EE000A2809B790221A371072301930023F3733E
:101EF000FFF75CFF0098A04201D00FF023FB0B4BD3
:101F000000941A6802929B88A38006230193002301
:101F1000B373D3E7064828F0A1F9C046FFFFFF3F9F
:101F2000B4170510D0170510C81705101C89051027
:101F3000641605100F2370B56D4C6E4E22688CB080
:101F40009A43002333716C4B22601B78002B02D024
:101F5000002800D069E0694D0C21280012F048F9F2
:101F6000002836D0012322681343654A2360136892
:101F70005268934200D1ADE002AC009406CB6846B3
:101F80008A18FEF785FC5F4906A8FEF7D7FC06A86D
:101F90000221FFF70BFF069808ADA84201D00FF011
:101FA000D1FA594906A8FEF7C9FC06A80321FFF794
:101FB000FDFE0698A84201D00FF0C4FA0098A04296
:101FC00001D00FF0BFFAFA2040000BF081FD0CB0F9
:101FD00070BD0D21280012F00BF900283ED002231D
:101FE000226813432360464B05CB121AD21093008C
:101FF0009B1819015B1819025B1819045B185B0028
:102000009A18012A6FD908AC06948169C26906A89A
:102010008A18FEF73DFC06A80121FFF719FF069874
:10202000A042D0D00FF08EFACDE7384D23223849A8
:10203000280033F041FB280033F018FB354906A88F
:10204000FEF77CFC06A80121FFF7B0FE069808AB5E
:10205000984200D17FE70FF075FA7CE70E21280047
:1020600012F0C6F800282AD10F21280012F0C0F87B
:102070000028ACD00823226813432360204B03CBF5
:10208000091AC9108B005B181A019B181A029B18B9
:102090001A049A1852005218032A20D908AC069440
:1020A000816CC26C06A88A18FEF7F2FB06A8002114
:1020B000FFF7CEFE0698A04200D082E783E7012317
:1020C000FA202268337103331343236040000BF07E
:1020D000FFFC7CE700221048110028F0D7F803210C
:1020E0000D4828F0D3F801210B4828F0CFF8C0465E
:1020F00060460020200E0220280F02203C0E022005
:1021000094260020C81705101C890510803900206E
:10211000D8170510FC1705106815051070B5046870
:1021200045680600AC420AD0230020680833984274
:102130000CD018340FF006FAA542F5D13568002D01
:1021400002D028000FF0FEF9300070BD1834A5420F
:10215000EAD1F3E7F0B5DE4657464E464546E0B5D0
:102160005A4CA544012800D1E8E0594B9868002852
:1021700001D00FF0E7F9574B9A4630CBAC4208D06C
:102180002068002800D19BE00C340FF0DBF9AC4252
:10219000F6D153461868002801D00FF0D3F94E4B02
:1021A0001868002801D00FF0CDF94C4C206813F0CE
:1021B000A7FA0022606811000AF082FF1F21606800
:1021C0000AF05CFF0022A06811000AF079FFA06805
:1021D0001F210AF053FF424B1868002801D00FF06E
:1021E000B1F9404B1868002801D00FF0ABF93E4B15
:1021F0001868002801D00FF0A5F93C4B186800289A
:1022000001D00FF09FF93A4B1868002801D00FF069
:1022100099F9384B1868002801D00FF093F9364B24
:102220001868002801D00FF08DF9344B1868002889
:1022300001D00FF087F9324B1868002801D00FF059
:1022400081F9304B1868002801D00FF07BF92E4B34
:102250001868002801D00FF075F92C48FFF75EFFD1
:102260002B48FFF75BFF2B48FFF758FF2A48FFF783
:1022700055FF2A48FFF752FF2948FFF74FFF29482B
:10228000FFF74CFF2848FFF749FF2848FFF746FFB4
:10229000274B1868002801D00FF054F9254B186817
:1022A000002801D00FF04EF9234816F011F99F23B2
:1022B0009B009D443CBC90469946A246AB46F0BD6F
:1022C0000C34A54200D05BE763E7C04684FDFFFF06
:1022D000200E0220E021002000220020000E02201B
:1022E0006021002080210020502200205021002069
:1022F0009021002070210020302100202022002089
:1023000040210020100F02205445002040220020D0
:1023100010220020A021002030220020C021002017
:10232000D0210020A0260020F021002094260020AB
:10233000B021002088260020503C002050AE3500FF
:10234000EB4816F0B5F8EB4B0024994607CB07C5D0
:10235000E9481B6831002B6054AA04604460846023
:10236000FEF7C8FA4B463200103383CB83C223CB2F
:1023700023C223CB23C200230022E04831000260A5
:102380004360846059AAFEF7B5FADD493000FEF7D4
:10239000D5FADC4956A8FEF7D1FADB495CA8FEF76E
:1023A000CDFADA4962A8FEF7C9FAD94831000460CB
:1023B0004460846068AAFEF78BFB68AC183C23007D
:1023C00020680833984201D100F0D3FD0FF0BAF82D
:1023D000B442F3D1CF493000FEF7B0FACE4956A847
:1023E000FEF7ACFACD495CA8FEF7A8FACC4962A882
:1023F000FEF7A4FACB4968A8FEF7A0FACA496EA86E
:10240000FEF79CFA7AAFC94974A8FEF797FAC84953
:102410003800FEF793FA80AB1800C6499A46FEF7DB
:102420008DFAC54986A8FEF789FA00220023C34821
:1024300086AC026043600023310083608CAAFEF703
:1024400047FB23002068083398420BD00FF07AF83E
:102450002300183BA64209D01C0023002068083343
:102460009842F3D12300183BA642F5D1B44930007D
:10247000FEF764FAB34956A8FEF760FAB2495CA8C1
:10248000FEF75CFAB14962A8FEF758FAB04968A8AD
:10249000FEF754FAAF496EA8FEF750FAAE4974A899
:1024A000FEF74CFAAD493800FEF748FAAC49504601
:1024B000FEF744FAAB4986A8FEF740FA0023AA4883
:1024C00086AC03604360836031008CAAFEF700FB9A
:1024D00023002068083398420BD00FF033F8230014
:1024E000183BA64209D01C002300206808339842FC
:1024F000F3D12300183BA642F5D19C493000FEF7EA
:102500001DFA9B4956A8FEF719FA9A495CA8FEF7EE
:1025100015FA994962A8FEF711FA984968A8FEF7DA
:102520000DFA97496EA8FEF709FA964974A8FEF7C6
:1025300005FA002200239448310002604360002322
:102540003A0083607AAFFEF7C3FA3C00183C2300E0
:1025500020680833984201D100F005FD0EF0F2FF2B
:10256000B442F3D189493000FEF7E8F9884956A80A
:10257000FEF7E4F987495CA8FEF7E0F9864962A80E
:10258000FEF7DCF9854968A8FEF7D8F984496EA8FA
:10259000FEF7D4F9834974A8FEF7D0F982493800D0
:1025A000FEF7CCF981495046FEF7C8F9804986A864
:1025B000FEF7C4F97F498CA8FEF7C0F97E4992A8BE
:1025C000FEF7BCF97D4998A8FEF7B8F90022002370
:1025D0007B4898AC026043600023310083609EAA70
:1025E000FEF776FA23002068083398420BD00EF0ED
:1025F000A9FF2300183BA64209D01C002300206835
:1026000008339842F3D12300183BA642F5D16D4D13
:1026100030002900FEF792F96B4956A8FEF78EF9B3
:102620006A495CA8FEF78AF9694962A8FEF786F94B
:10263000684968A8FEF782F967496EA8FEF77EF937
:10264000664974A8FEF77AF965493800FEF776F90D
:1026500050466449FEF772F90022002362483100B7
:1026600002604360002386AA8360FEF731FA80ABE4
:102670001C009A4623002068083398420BD00EF0C5
:1026800061FF2300183BA64209D01C0023002068EC
:1026900008339842F3D12300183BA642F5D1290014
:1026A0003000FEF74BF9514956A8FEF747F950495B
:1026B0005CA8FEF743F94F4962A8FEF73FF94E497F
:1026C00068A8FEF73BF94D496EA8FEF737F94C496B
:1026D00074A8FEF733F94B493800FEF72FF950463E
:1026E0004949FEF72BF900220023484831008FE0CA
:1026F000503C0020542B051088260020B0210020DB
:10270000081805100C180510148105101018051074
:1027100094260020188505101418051018180510A7
:102720001C1805102018051024180510281805106D
:102730002C1805103018051034180510F021002051
:1027400038180510401805104818051050180510C5
:102750005418051058180510601805106818051051
:102760007018051078180510A02600208018051094
:1027700084180510881805108C180510901805107D
:102780009418051098180510D02100209C180510E9
:10279000A0180510A4180510A8180510AC180510ED
:1027A000B0180510B4180510B8180510BC1805109D
:1027B000C0180510C4180510C8180510CC1805104D
:1027C000C021002054250510D0180510D818051078
:1027D000E0180510E8180510F0180510F818051095
:1027E0000019051004190510302200200C190510DD
:1027F0001819051024190510301905103C19051079
:1028000048190510541905105C190510A021002065
:1028100002604360002386AA8360FEF759F980AB0B
:102820001C009A4623002068083398420BD00EF013
:1028300089FE2300183BA64209D01C002300206813
:1028400008339842F3D12300183BA642F5D1FB4947
:102850003000FEF773F8FA4D56A82900FEF76EF81F
:10286000F8495CA8FEF76AF8F74962A8FEF766F82F
:10287000F64968A8FEF762F8F5496EA8FEF75EF81B
:10288000F44974A8FEF75AF8F3493800FEF756F8F1
:1028900000220023F14831000260436000235246C9
:1028A0008360FEF715F980AB9A461C00183C2300A4
:1028B00020680833984200D14DE30EF043FEB44245
:1028C000F4D1E7493000FEF739F8290056A8FEF7A1
:1028D00035F8E4495CA8FEF731F8E34962A8FEF751
:1028E0002DF8E24968A8FEF729F8E1496EA8FEF73D
:1028F00025F8E04974A8FEF721F8DF493800FEF713
:102900001DF800220023DD483100026043600023EF
:1029100052468360FEF7DCF880AB9A461C00183CF8
:10292000230020680833984200D118E30EF00AFE15
:10293000B442F4D14B463200343313CB13C213CB21
:1029400013C200241B68CE48136031000460446049
:10295000846057AAFDF7CEFF1822210052A80EF07E
:10296000DDFD01230122C7485092519331000460DC
:102970004460846058AAFDF7BDFF0C2321001A00B3
:10298000300098460EF0CAFD00220023BE483100F8
:102990000260436053AB1A008460FDF7ABFF08236D
:1029A00021001A0051A89B460EF0B8FD002200231A
:1029B0007825B64831000260436053AB1A0084604A
:1029C0005095FDF797FF4B463100503325CB25C17D
:1029D00000220023AE4831000260436053AB1A006E
:1029E0008460FDF787FFFF228023B46050925193EB
:1029F00000220023A74831000260436053AB1A0055
:102A00008460FDF777FFFF21FF220023B46050911F
:102A100051920022A04831000260436053AB1A007B
:102A20008460FDF767FF4246210030000EF076FD1E
:102A3000002200237825994831000260436053AB9F
:102A40001A0084607560FDF755FF0022002394484A
:102A5000509251930260436053AB1A00310084607E
:102A6000B560FDF747FF4B4630005C3326CB26C0F0
:102A7000002200238B4831000260436053AB1A00F0
:102A80008460FDF737FF4B463000683326CB26C005
:102A900000220023844831000260436053AB1A00D7
:102AA0008460FDF727FF814D814B28002B601423A4
:102AB0006B600133AB607F4B2B611623EB6012F030
:102AC00075FF012329000F2200937B48FE330194F8
:102AD00011F0F0FFEC2501237748FE224355FF2536
:102AE000EF339205C2500433C550642221003000F8
:102AF0000EF014FD15201723F060013830614046B8
:102B00007360043B7361013BB361013BF361013BC3
:102B10003362013B7362013BB362013BF362023BF0
:102B20007363013BB363013BF363023B7364013B9B
:102B3000B364013BF364013B3365013B3063736570
:102B40005846013BB365013B16210022F365002383
:102B500030645A48B160026043603100846069AA01
:102B6000FDF7C8FE5A4621004EA80EF0D7FC002300
:102B700000224DA8509251930100320030004D9533
:102B8000B460FDF7B7FE3F23FF2223A883462092BF
:102B90002193020020A8010053A82294F46034611C
:102BA0007461FDF7A7FEFF227F231C921D93002373
:102BB00000221CA85692579301001FAA56A81E94E3
:102BC0003462FDF797FEBF23FF2218A80100189278
:102BD000199359A81BAA1A947462B462F462FDF79F
:102BE00089FEFF21FF22002314911592002214A9CF
:102BF0005C925D935CA817AA1694B463FDF77AFE05
:102C0000FF23BF2210A9109211935FA813AA129458
:102C1000F46334647464FDF76DFE7F22FF230C922D
:102C20000D93002300220CA96292639362A80FAA5D
:102C30000E943465FDF75EFEFD2341E06819051032
:102C4000608505106C1905107019051074190510B0
:102C5000781905107C190510801905101022002024
:102C6000841905108C19051098190510A019051064
:102C7000A8190510B0190510B81905104022002038
:102C800054450020100F0220402100202022002067
:102C900030210020702100209021002050210020B0
:102CA000502200208021002060210020000E022000
:102CB00034160020801A060000090220002200209D
:102CC0003F2208A90892099365A80BAA0A94746583
:102CD000B465F465FDF70EFE424621004AA80EF0E9
:102CE0001DFC002300224DA8689269934AA90200A6
:102CF00068A84B95B466FDF7FDFD4B4647A8804696
:102D0000743326CB26C04AA8020041466BA8F4665D
:102D100034677467FDF7EEFD44A803008146B248AE
:102D200026C826C3002200236E926F9380230500DD
:102D3000F4506EAB424649461800FDF7DBFD280013
:102D400041AB984626C826C38423F45004334A4630
:102D50004146F45071A80433F450FDF7CBFDA24B6B
:102D60003EA81833814626CB26C000220023749249
:102D7000759398234246494674A8F450FDF7BAFD6E
:102D8000994B3BA82433804626CB26C09C23F45085
:102D900004334A464146F45077A80433F450FDF713
:102DA000A9FD914B38A83033814626CB26C000229E
:102DB00000237A927B93B02342464946380035AFD0
:102DC000F450FDF797FD3800874B3C3326CB26C0E7
:102DD000B423F45004333900F4504A4604337DA838
:102DE000F450FDF787FD00220023FF21809281939C
:102DF00004920593C823504607AA069104A9F450EB
:102E0000FDF778FD784B32A94833884625CB25C19C
:102E1000CC23F45004333A0041462FAFF45083A83A
:102E20000433F450FDF766FD39006F4B543325CB66
:102E300025C10022002386928793E0234246390071
:102E400086A8F450FDF756FD674B2CA960338846E1
:102E500025CB25C1E423F45004333A00414629AF81
:102E6000F45089A80433F450FDF744FD39005E4B5B
:102E70006C3325CB25C1002200238C928D93F8233F
:102E8000390042468CA8F450FDF734FD564D26AB70
:102E90007835984607CD07C3FC23F45004333A0035
:102EA000F4508FA804334146F450FDF723FD5946F2
:102EB0004E4B00220433A1CBA1C1002392929393E5
:102EC000882359465B00424692A8F450FDF712FD54
:102ED000474B002219009A468A2000238C600A6022
:102EE0004B6040000EF026FB53461860030052462C
:102EF0001533FF33936095AB050037009B46039471
:102F00001CE08022920593426BD240460EF012FBE9
:102F100039687A680400531A99464346E3182C60CE
:102F20006C60AB60914203D04A4620004EF0DCFA60
:102F30004C440C376C600C355F4520D039687A689A
:102F40000398531A984628609B106860A860D8D1EF
:102F5000C1460024E1E7B44200D0A7E4B1E4B442A2
:102F600000D0DCE4E6E4B44201D0FFF7EFFAFFF76B
:102F7000F9FAB44201D0FFF721FAFFF72BFA5346D2
:102F8000929892AC5D60002809D00EF0DBFA230025
:102F90000C3BA64207D01C0020680028F5D1230076
:102FA0000C3BA642F7D11349134811F053F8134CC8
:102FB000134900230A002000A380A360E36023617B
:102FC00010320830FDF796FC0F230E4A63610E4B5A
:102FD0001A600E4A9A8016229A713C321A75FFF7CF
:102FE00066F927F003F9C046D42B0510542C0510C0
:102FF000E0210020684600203C0E0220200E022026
:10300000702C051034160020BC0E02201415000090
:10301000F0B5DE46454657464E46E0B58BB004ABAC
:103020009846002342460593137203680E000C3B3A
:103030001968050041186C3106AF03A8049715F014
:103040007FFA03A827F050FF040003A815F030FB17
:10305000237F002B38D04D23E35C9A464E23E35C5C
:10306000994653460021009340460423059A33F0C5
:103070003FF933681A0703D54A46049B1A70336830
:103080005A0703D54A46049B5A7033689A0703D5FA
:103090004A46049B9A703368DB0702D54A46049B74
:1030A000DA702800059A049932F006FB04000498AF
:1030B000B84201D00EF046FA20000BB03CBC90465E
:1030C0009946A246AB46F0BD20001BF05FFB0F4ABD
:1030D0002368934630229B6992465B4510D1237F3B
:1030E000002BBBD120001BF051FB312223689146FD
:1030F0009B695B45B5D03121200098478146B0E7F8
:103100003021200098478246E9E7C0465D03001061
:10311000F0B50400083020600F6816004D6883B0D9
:10312000002F1FD001950F2D0DD8012D1FD13B78F9
:10313000237200236560435506CE200033F010FA59
:10314000200003B0F0BD0022200001A932F042FFB0
:10315000019B2060A3602A0039000EF0E5F9019D73
:103160002068E6E7002DE4D0024827F05FF8002D44
:10317000DFD0F0E73C150510F0B5DE4657464E4669
:103180004546B54BE0B505009A46EBB0272218003E
:10319000B24932F091FAB24B1022B2491CA8009504
:1031A000FDF7FCFC50461D9A1C9932F085FA036825
:1031B00004000C3B1B68C318DE6F002E00D1B5E382
:1031C000337F002B00D1CFE22723F15C200032F0C7
:1031D000EDF932F05BF91C981EAB984201D00EF06D
:1031E000B1F9A14C2378BFF35B8FDB0700D443E335
:1031F000012211009D4C2378BFF35B8F1940884654
:103200001A4200D1C6E204AB9B4606AB04935A4671
:10321000002313720CAA0A92954C0AAA05930B93E9
:1032200013722378BFF35B8FDB0700D413E3002D09
:1032300012D10A980CAB984201D00EF083F9049891
:1032400006AB984201D00EF07DF96BB03CBC9046C5
:103250009946A246AB46F0BD864B00249846864F61
:1032600001254346A5401B681D40082C39D8834AD8
:10327000A300D3589F467B683A68991AC9108B00FF
:103280005B1818011B1818021B1818041B185B0088
:103290005B18082B00D84BE322AD2800C0327849D8
:1032A000FFF736FF229B24AA91460498934200D14F
:1032B00000E306AA904200D110E35A460493239BF0
:1032C00092680593249B0693002800D10BE322907B
:1032D00024920023239303702298484501D00EF0D6
:1032E00031F97B6839685A1AD21093009B1818017B
:1032F0001B1818021B1818041B185B009B18092BBD
:1033000000D824E35846D83132F0A6FE24AB9946C3
:1033100022AD4B462B605B4B280006CB8A18FDF78D
:10332000B7FA2800059A049933F01AF95046239AFF
:10333000229932F0C1F9036805000C3B1B68C318E1
:10334000DE6F002E00D1F1E2337F002B00D1D5E1FA
:103350002723F15C280032F029F932F097F82298FF
:10336000484500D1E0E101340EF0ECF80C2C00D01F
:1033700076E75EE77B683A68991AC9108B005B189C
:1033800018011B1818021B1818041B185B005B1887
:10339000062B00D800E311009031082B00D8C7E2BB
:1033A00022ADC0322800FFF7B3FE229B24AA91462B
:1033B0000498934200D1BCE106AA904200D1C8E132
:1033C0005A460493239B92680593249B06930028F6
:1033D00000D1C3E12290249200232393037022980A
:1033E000484596D00EF0AEF893E77B683A68991A94
:1033F000C9108B005B1818011B1818021B18180441
:103400001B185B005B18012B00D8CAE211001831B1
:10341000002D00D1FBE0A8260720984200D38CE2C3
:1034200022AD9219BEE77B683A68991AC9108B00E1
:103430005B1818011B1818021B1818041B185B00D6
:103440005B18052B00D89FE211007831002D00D0C9
:1034500029E2F0260A20E0E780390020C019051093
:10346000A4260510A5020110602600205826002081
:103470005C260020D40E022014410020D01A051032
:1034800020410020384100207B683A68991AC91011
:103490008B005B1818011B1818021B1818041B1846
:1034A0005B005B18022B00D84CE23032B54910A803
:1034B000FFF72EFEB44B119A9B1A042B00D868E23A
:1034C0000522B24910A833F04BF80822914618ABF8
:1034D00016930368814406004B4500D115E216930C
:1034E000836818937368396817934B4633600023D9
:1034F000736033727B685A1AD21093009B181801BC
:103500001B1818021B1818041B185B009B18032BB0
:1035100000D82AE2CA6C16A8896C33F021F8082278
:1035200091461EAB1C930368814406004B4500D1B5
:10353000E5E11C9383681E9373681D934B463360CB
:10354000002373603372002D00D0B0E1C020082149
:103550007B683A689D1AED10AB005B191E019B1940
:103560001E029B191E049B195B005B19994200D334
:10357000F2E1101806C81CA832F0F2FF08229446A7
:103580008444624624AB229399460368060022AD28
:103590000392634500D1BEE122938368249373684C
:1035A00029002393039B58463360002373603372D2
:1035B00032F020FE2298484501D00DF0C3FF1C9840
:1035C0001EAB984201D00DF0BDFF169818AB984283
:1035D00001D00DF0B7FF109812AB984200D001E770
:1035E00097E67B683A68991AC9108B005B18180136
:1035F0001B1818021B1818041B185B005B18042BFF
:1036000000D8ADE111006031002D00D003E7C026E5
:10361000082002E77B683A68991AC9108B005B188A
:1036200018011B1818021B1818041B185B005B18E4
:10363000022B00D886E1534930321CA8FFF768FD01
:10364000002D00D02CE1C02008217B683A689D1A2B
:10365000ED10AB005B191E019B191E029B191E0485
:103660009B195B005B19994200D375E1101806C8DD
:103670001CA832F075FF082294468444624624ABAD
:10368000229399460368060022AD0392634500D158
:103690002FE1229383682493736829002393039B6B
:1036A0005846336000237360337232F0A3FD2298D2
:1036B000484501D00DF046FF1C981EAB984200D043
:1036C00090E626E639687B688B4200D157E1002DF1
:1036D00000D0E2E0C02208205D1AED10AB005B19BB
:1036E0001E019B191E029B191E049B195B005B198E
:1036F000984200D33EE122AD8A1853E630001BF019
:1037000045F83368224A9B690A21934200D121E699
:10371000300098470100280031F048FF31F0B6FE34
:103720002298484500D01EE601340C2C00D097E5C5
:103730007FE5239A002A07D0012A00D1C9E0494633
:103740000DF0F2FE239A04980023059283542298E8
:1037500042E60493239B0593249B06934B462293B6
:1037600024AB9946180037E630001BF00FF8336899
:10377000074A9B690A21934200D127E53000984708
:10378000010023E520410020FFFFFF3FC81A05107C
:103790005D030010200014F089FB002800D132E501
:1037A00022AE82493000FDF7C9F8814928A8FDF70B
:1037B000C5F880492EA8FDF7C1F87F4934A8FDF768
:1037C000BDF87E493AA8FDF7B9F87D4940A8FDF754
:1037D000B5F87C4946A8FDF7B1F87B494CA8FDF740
:1037E000ADF87A4952A8FDF7A9F8794958A8FDF72C
:1037F000A5F878495EA8FDF7A1F8774964A8FDF718
:103800009DF84346754F31003B607B60BB606AAA00
:103810003800FDF75DF9200014F064FB64AC7048DB
:1038200040F0A4FC23002068083398420CD00DF02F
:1038300089FE2300183BA64200D1E4E41C002300CB
:10384000206808339842F2D12300183BA64200D1E9
:10385000D9E41C00F3E7200014F028FB002800D175
:10386000E5E460496048FDF769F8200014F03AFB90
:103870005E4840F07BFCDAE4200014F017FB0028DF
:1038800000D1B5E45A495B48FDF758F8200014F020
:1038900029FB594840F06AFCAAE4A82207201BE74C
:1038A000A8200721D1E684260B207600B5E5A820C4
:1038B00007214DE6239A002A06D0012A31D0494635
:1038C0000DF032FE239A0498002305928354229827
:1038D000FFE42B7A0370239A049835E70493239B23
:1038E0000593249B06934B46229324AB99461800DC
:1038F000EFE41022614648460DF016FECCE649463C
:1039000008321EA80DF010FE16E64946083218A827
:103910000DF00AFEE6E51022614648460DF004FE71
:103920003DE62B7A0370239A0498CDE726F06EFCCF
:103930001A000821314826F0A9FC01001A002F487E
:1039400026F0A4FC1A0002212C4826F09FFC1A0045
:1039500009212A4826F09AFC1A00284826F096FCED
:103960001A000421254826F091FC1A00032123485F
:1039700026F08CFC01001A00204826F087FC00226B
:103980001E48110026F082FC1A0005211B4826F073
:103990007DFC1B4826F062FC1A000621174826F021
:1039A00075FC1A000121154826F070FC041A051058
:1039B000101A05101C1A0510281A0510401A0510B7
:1039C000541A0510601A0510701A0510801A051097
:1039D0008C1A05109C1A0510A01A0510144100201D
:1039E000950A0010A81A05102041002011050010AA
:1039F000E819051038410020290500106815051048
:103A000064160510F0B5DE4657464E464546E0B50D
:103A1000A44CA7B02378BFF35B8FDB0701D400F081
:103A200025FCA14DA14C2378BFF35B8FDB0701D4AC
:103A300000F036FC9E4C2378BFF35B8FDB0701D48C
:103A400000F047FC9B4C2378BFF35B8FDB0701D46E
:103A500000F058FC984C2378BFF35B8FDB0701D450
:103A600000F069FC954C2378BFF35B8FDB0701D432
:103A700000F07AFC924C2378BFF35B8FDB0701D414
:103A800000F08BFC8F4C2378BFF35B8FDB0701D4F6
:103A900000F09CFC696810AB8C460E932B6829687B
:103AA00063441A000EA8FCF7F3FE874B0F9A9B1A8B
:103AB0000A2B01D800F022FD0B2284490EA832F017
:103AC0004FFD834C0F9A0E99200031F0F5FD31F037
:103AD000CDFD0E9810AB984201D00DF033FD0322BE
:103AE0007C4B1A607C4B0ACB5B1A9A10072B01D8CF
:103AF00000F00BFD4B680393062A01D800F001FD8E
:103B00008B69332204934B6920007449059331F08B
:103B1000D3FD200031F0AAFD2B227149200031F0A5
:103B2000CBFD200031F0A2FD2B226E49200031F0A8
:103B3000C3FD200031F09AFD3D226B49200031F099
:103B4000BBFD200031F092FD2B226849200031F0AE
:103B5000B3FD200031F08AFD2C226549200031F0B0
:103B6000ABFD200031F082FD624B1800994612F047
:103B7000FBFE002800D0C7E014AB984616AB0AAF96
:103B80000293002200230A920B9300230120BB60C2
:103B90000DF0D0FC69681F228C46431CBB607B6023
:103BA0002B68029E634402700A901A0040462968FE
:103BB0001496FCF76DFE444B159A9B1A2B2B01D8DB
:103BC00000F09CFC2C224C49404632F0C9FC159A6E
:103BD0001499200031F070FD31F048FD1498B04286
:103BE00001D00DF0AFFC69681CAB8C461A93984667
:103BF0002B68296863441A001AA8FCF749FE324B67
:103C00001B9A9B1A292B01D800F078FC2A223B49E9
:103C10001AA832F0A5FC20AE1B9A1A99200031F0A8
:103C20004BFD31002097FDF7BFF80700072234490C
:103C300031F042FD380031F019FD1A98404501D0AD
:103C40000DF080FC0A98002801D00DF07BFC22AB1F
:103C500000279A4606CD53468A1830002093FCF779
:103C600017FE194B219A9B1A092B01D800F046FC2C
:103C70000A222449300032F073FC219A2099200056
:103C800031F01AFD31F0F2FC2098504501D00DF0D2
:103C900059FC380027B03CBC90469946A246AB463A
:103CA000F0BDC04698250020B83C0020A825002083
:103CB000AC250020B0250020B4250020A025002040
:103CC0009C250020A4250020FFFFFF3F00250510B4
:103CD000803900200C0F0220100F0220501C05100C
:103CE000841C0510B01C0510DC1C05101C1D0510E3
:103CF000481D0510BC0E0220A81D0510D81D05107A
:103D0000941D0510182505101F21484612F094FB3C
:103D10000690FF2800D16CE3002200230E920F933F
:103D20000023012010930DF005FC431C10930F930A
:103D300014AB9846069A290002700E90E54A1800C6
:103D4000FFF7E6F9E449404632F034FC01001AA8D6
:103D500032F036FAE14B1AA89B4606CB32F000FC53
:103D600020AE0100300032F02BFA219A2099200079
:103D700031F0A2FC82460322D9490AAF31F09CFC03
:103D80000EAB390050460A93FDF70EF88246012229
:103D9000D44931F091FC504631F068FC209822ABB8
:103DA0009A46984201D00DF0CDFB1A981CAB984270
:103DB00001D00DF0C7FB149816AB0293984201D0C6
:103DC0000DF0C0FB6B461B7B00220793002B04D039
:103DD0000699FE3211400A001A431F21484612F08C
:103DE00043FB03900E98002801D00DF0ABFB039B22
:103DF000002B00D1C5E6002200230A920B9300237A
:103E00000120BB600DF096FB079A431C027029004D
:103E1000B04A0A900EA8BB607B60FFF779F9B249FF
:103E20000EA832F0C7FB0100404632F0C9F95B46EC
:103E3000404606CB32F094FB01001AA832F0C0F9DC
:103E4000AA491AA832F0B6FB0100300032F0B8F9E6
:103E5000219A2099200031F02FFC09A90997FCF73D
:103E6000A3FF31F003FC2098504501D00DF06AFB10
:103E70001A981CAB984201D00DF064FB1498029B79
:103E8000984201D00DF05EFB0E9810AB984201D025
:103E90000DF058FB1F21484612F0CEFAFF2800D142
:103EA00011E300220023002714921593434606AA2B
:103EB00094469F60692363441A0031003070404685
:103EC000FCF7CAFC1F230022337000231A921B93B5
:103ED00006AA9446692363441A0031001AA81C9765
:103EE000FCF7BAFC696853468C4620932B68300077
:103EF00063441A002968FCF7CBFC7D49300032F09E
:103F000059FB219A2099200031F0D6FB1AAB09A960
:103F10000993FCF749FF14220700764931F0CCFBE6
:103F2000434638000EA90E93FCF73EFF070001221E
:103F30006C4931F0C1FB380031F098FB20985045B6
:103F400001D00DF0FFFA1A98002801D00DF0FAFA0E
:103F50001498002801D00DF0F5FA332266492000AC
:103F600031F0AAFB200031F081FB2B2263492000B5
:103F700031F0A2FB200031F079FB2B2260492000B8
:103F800031F09AFB200031F071FB3D225D492000A9
:103F900031F092FB200031F069FB2B225A492000BE
:103FA00031F08AFB200031F061FB2C2257492000C0
:103FB00031F082FB200031F059FB2900544A0EA851
:103FC000FFF7A6F8534B0EA806CB32F0C9FA010052
:103FD000404632F0F5F8504F40467A68396832F082
:103FE000BFFA01001AA832F0EBF81B9A1A992000C8
:103FF00031F062FB494B059A9B46FF23134059461B
:104000001022039000933000454BFCF7C7FD219A26
:104010002099039831F050FB31F028FB209850454F
:1040200001D00DF08FFA1A981CAB984201D00DF018
:1040300089FA1498029B984201D00DF083FA0E98E9
:1040400010AB984201D00DF07DFA2900304A0EA83D
:10405000FFF75EF8334B0EA806CB32F081FA010071
:10406000404632F0ADF806CF404632F079FA010012
:104070001AA832F0A5F81B9A1A99200031F01CFBFF
:10408000FF230700049A5946134030001022009382
:10409000234BFCF783FD219A2099380031F00CFB6B
:1040A00031F0E4FA2098504501D00DF04BFA1A98FF
:1040B0001CAB984201D00DF045FA1498029B98422F
:1040C00001D00DF03FFA0E9810AB98422CD00DF0B5
:1040D00039FA29E0183D00209C1D0510303D0020D4
:1040E0002821051020220510041E0510EC200510C3
:1040F000441E0510801E0510981E0510841C051016
:10410000B01C0510CC1E05100C1F0510481D051015
:10411000483D0020D03C0020603D0020A502011059
:10412000A4260510E83C00202021484612F084F91E
:10413000002200231492159300239B4643465A46BF
:1041400007009A6001200DF0F5F94246431C1490D7
:10415000936007705360FF2F00D18CE12023002271
:10416000337000231A921B935B461C9306AB9C464C
:104170006932624431001AA8FCF76EFB6968534645
:104180008C4620932B68300063441A002968FCF7A2
:104190007FFBE049300032F00DFA219A209920008F
:1041A00031F08AFA1AAB09A90993FCF7FDFD062242
:1041B0000700D94931F080FA434638000EA90E9322
:1041C000FCF7F2FD07000122D44931F075FA3800FE
:1041D00031F04CFA2098504501D00DF0B3F9049B12
:1041E00020211A01FF231B011A40059B48461A4350
:1041F000D2B212F039F95346696820938C462B6885
:10420000070063441A0030002968002F00D010E135
:10421000FCF73EFBC249300032F0CCF9219A2099DC
:10422000200031F049FA1AAB0EA90E93FCF7BCFD41
:1042300080463922BB4931F03FFA404631F016FA48
:104240002098504501D00DF07DF91A98002801D032
:104250000DF078F91498002801D00DF073F90A9840
:10426000002800D1F6E40DF06DF9F3E4200013F01E
:104270001DFEAD4D002801D1FFF7D4FBAB4928004E
:10428000FCF75CFB200013F02DFEA9483FF06EFF09
:10429000A84C2378BFF35B8FDB0701D5FFF7CAFB80
:1042A000200013F003FE002801D1FFF7C3FBA24951
:1042B000A248FCF743FB200013F014FEA0483FF097
:1042C00055FFA04C2378BFF35B8FDB0701D5FFF7C9
:1042D000B9FB200013F0EAFD002801D1FFF7B2FB83
:1042E00099499A48FCF72AFB200013F0FBFD9848F7
:1042F0003FF03CFF974C2378BFF35B8FDB0701D582
:10430000FFF7A8FB200013F0D1FD002801D1FFF733
:10431000A1FB91499148FCF711FB200013F0E2FD4D
:104320008F483FF023FF8F4C2378BFF35B8FDB0771
:1043300001D5FFF797FB200013F0B8FD002801D14D
:10434000FFF790FB88498948FCF7F8FA200013F042
:10435000C9FD87483FF00AFF864C2378BFF35B8F87
:10436000DB0701D5FFF786FB200013F09FFD002837
:1043700001D1FFF77FFB80498048FCF7DFFA20007E
:1043800013F0B0FD7E483FF0F1FE7E4C2378BFF382
:104390005B8FDB0701D5FFF775FB200013F086FD6F
:1043A000002801D1FFF76EFB77497848FCF7C6FA81
:1043B000200013F097FD76483FF0D8FE754C237827
:1043C000BFF35B8FDB0701D5FFF764FB200013F021
:1043D0006DFD002801D1FFF75DFB6F496F48FCF7C9
:1043E000ADFA200013F07EFD6D483FF0BFFEFFF7F1
:1043F00051FB696822AB8C469A4620932B6829684A
:1044000063441A0020A8FCF743FA664920A832F05A
:10441000D1F8219A2099200031F04EF931F026F997
:104420002098504501D1FFF7A7FB0DF08BF8FFF75F
:10443000A3FBFCF72DFA5C49300032F0BBF8219A5F
:104440002099200031F038F9434609A90993FCF777
:10445000ABFC80462C22554931F02EF91AAB0EA93F
:1044600040460E93FCF7A0FC31F000F9209850452F
:1044700000D0E8E6E9E6696853468C4620932B684D
:10448000300063441A002968FCF702FA48493000FA
:1044900032F090F8219A2099200031F00DF943462E
:1044A0001AA91A93FCF780FC07000722414931F052
:1044B00003F9380031F0DAF82098504501D00DF0BA
:1044C00041F80027C6E6696853468C4620932B685E
:1044D000300063441A002968FCF7DAF936493000E5
:1044E00032F068F8219A2099200031F0E5F831F097
:1044F000BDF82098504500D02DE52EE52F4825F039
:10450000ADFE06212E4825F0C1FE01212C4825F0E4
:10451000BDFEC0465C1F0510841F0510202205103B
:10452000D01F0510F01F0510B83C00205C1B0510C3
:1045300009040010A82500206C1B0510183D002060
:10454000F1030010AC250020AC1B0510303D00200D
:10455000D9030010B0250020C01B0510483D0020E5
:10456000C1030010B4250020EC1B0510603D0020A5
:10457000A9030010A0250020301B0510E83C0020F6
:10458000910300109C250020281B0510D03C002022
:1045900079030010A4250020141C0510003D002004
:1045A00061030010781D05108C1F0510A01F051059
:1045B000381F0510941D05100C1E051064160510FB
:1045C00068150510F0B54E464546DE4657460023B1
:1045D000E0B5F04D99462B78C1B0BFF35B8FDB0798
:1045E00001D400F097FCEC4CEC4D2B78BFF35B8FC3
:1045F000DB0701D400F0A8FCE94D2B78BFF35B8FFB
:10460000DB0701D400F0B9FCE64D2B78BFF35B8FDC
:10461000DB0701D400F0CAFC616818AB8C46169326
:1046200098462368216863441A0016A8FCF730F9FD
:10463000DD4B179A9B1A0A2B01D800F0E2FC0B22E3
:10464000DA4916A831F08CFFD94D179A280016992F
:1046500031F032F8036806000C3B1B68C318DF6FAB
:10466000002F01D100F0D0FC3B7F002B00D1D5E31F
:104670002723F95C300030F099FF30F007FF1698DF
:10468000404501D00CF05EFFCA4B1F2118009B462D
:1046900011F0D2FE0026002300278046059001205D
:1046A0009A460C930A960B970CF044FF431C1F226A
:1046B0000C930B9343460A900270FF2B00D1D8E372
:1046C0000123059A51461A402EAB984601200592C7
:1046D00030912E962F970CF02DFF4146431C8B6096
:1046E0004B60B54B059A0ACB5B1A02702E909A105C
:1046F000072B01D800F092FC059B3CAF4B60616832
:104700003AAB8C469A462368504663441A002168A7
:1047100004973A97FCF7BCF8A849504631F04AFF95
:104720003B9A3A99280030F0C7FF0AAB28A9289392
:10473000FCF73AFB0722A249060030F0BDFF4346D2
:10474000349334AB190030000893FCF72DFB0600BE
:1047500001229C4930F0B0FF300030F087FF3A98DA
:10476000B84201D00CF0EEFE616836AB8C46029385
:1047700034932368089E63441A0030002168FCF7D4
:1047800087F83000904931F015FF359A34992800A8
:1047900030F092FF0600059B102250468B49009393
:1047A0008B4BFCF7FBF93B9A3A99300030F084FFD1
:1047B00030F05CFF3A98049B984201D00CF0C2FEA6
:1047C0003498029B984201D00CF0BCFE2E98002831
:1047D00001D00CF0B7FE002309932021584611F0B8
:1047E0002BFE002600230027039001209B461093F8
:1047F0000E960F970CF09EFE431C10930F935B4692
:10480000039A0E90027001201493129613970CF0E5
:1048100091FE616820228C46431C1493139330ABA5
:104820002E932368027063441A0012902168404658
:10483000FCF72EF85C4B2F9A9B1A4F2B00D8E0E325
:1048400050226449404631F08BFE2F9A2E99280061
:1048500030F032FF12AB22A92293FCF7A5FA060032
:1048600006225D4930F028FF0EAB300028A92893BE
:10487000FCF79AFA06000122524930F01DFF336816
:104880000C3B1B68F318DF6F002F00D1BCE33B7FAC
:10489000002B00D1D1E22723F95C300030F086FEF6
:1048A00030F0F4FD2E9830AB984201D00CF04AFE67
:1048B000039BFF2B00D107E31A000F2718093A408A
:1048C0000692C2B260681EA984461C9121680792B4
:1048D00061440A001CA82168FBF7DAFF324B1D99DE
:1048E0005B1A162B00D88CE317223C491CA831F028
:1048F00037FE1D9A1C99280030F0DEFE0600039B4F
:104900003249102240460093314B8B46FCF746F962
:1049100030002F9A2E9930F0CFFE06000522304944
:1049200030F0CAFE2A4B1022594608980097FCF72F
:1049300035F93000359A349930F0BEFE0600042275
:10494000284930F0B9FE079A214B5946504600924B
:104950001022FCF723F930003B9A3A9930F0ACFE74
:10496000214902228946070030F0A6FE1F4E7068DA
:104970003168421AD21093009B1818011B181802B4
:104980001B1818041B185B009A18079B934200D34E
:104990003CE32DE088250020583C00209025002095
:1049A000942500208C250020FFFFFF3F00250510E7
:1049B00080390020BC0E0220100F0220F0200510CC
:1049C00024210510202205102C210510A50201101C
:1049D000A426051058210510AC210510042205104D
:1049E0001C220510242205102C2205104022002034
:1049F0001A0094465B006344DB00C91806C93800FE
:104A000030F05AFE30F032FE3A98049B984201D0C2
:104A10000CF098FD349836AB0293984201D00CF01C
:104A200091FD2E9830AB984201D00CF08BFD1C9874
:104A30001EAB984201D00CF085FD61682AAB8C4614
:104A400028932368216863441A0028A8FBF720FFF5
:104A5000DE4928A831F0AEFD299A2899280030F0C7
:104A60002BFE0700039B1022594640460093D84B6B
:104A7000FCF794F838002F9A2E9930F01DFE05228D
:104A8000D449070030F018FEF02310225946089848
:104A90000093CF4BFCF782F83800359A349930F008
:104AA0000BFE07000422CC4930F006FE069B1022C4
:104AB000594650460093C64BFCF770F838003B9AB5
:104AC0003A9930F0F9FD02224946070030F0F4FD32
:104AD00006CE521AD21093009B1818011B18180208
:104AE0001B1818041B185B009A18069B934200D3EE
:104AF0008CE21A0094465B006344DB00C91806C9C7
:104B0000380030F0D9FD30F0B1FD3A98049B98425E
:104B100001D00CF017FD3498029B984201D00CF0A4
:104B200011FD2E9830AB984201D00CF00BFD289867
:104B30002AAB984201D00CF005FDA84F39687B687C
:104B40005B1A9A10172B00D864E2069AA44B4A61AC
:104B50001A602100A34A22A8FEF7DAFAA24B239A90
:104B60009B1A032B00D84CE20422A04922A831F062
:104B7000F7FC0822914630AB2E930368814406006F
:104B80004B4500D125E22E938368309373684046ED
:104B90002F934B463360002373603372944B9946D6
:104BA00006CB31F0DDFC0822944684446246029B29
:104BB0000600349303680392634500D10FE23493F7
:104BC00083683693736828003593039B3360002312
:104BD00033727360359A349930F06EFD0600069B8F
:104BE0001022594650460093794BFBF7D7FF3B9A6A
:104BF0003A99300030F060FD30F038FD3A98049B6F
:104C0000984201D00CF09EFC3498029B984201D04F
:104C10000CF098FC2E9830AB984201D00CF092FC2E
:104C2000229824AB984201D00CF08CFC0ACF5B1A7E
:104C30009A101B2B00D8F5E1079A6E4B8A611A6017
:104C40002100684A28A8FEF763FA674B299A9B1A45
:104C5000032B00D8D5E10422674928A831F080FC55
:104C6000070030AB2E93036808370600BB4200D123
:104C7000BBE12E9383683093736840462F930023E3
:104C8000736033724B46376006CB31F069FC070026
:104C9000029B0837349303680600BB4200D1AAE1A7
:104CA0003493836836937368280035930023376004
:104CB00033727360359A349930F0FEFC0600079B1E
:104CC0001022594650460093414BFBF767FF3B9A31
:104CD0003A99300030F0F0FC30F0C8FC3A98049B70
:104CE000984201D00CF02EFC3498029B984201D0DF
:104CF0000CF028FC2E9830AB984201D00CF022FC2E
:104D000028982AAB984201D00CF01CFC069B079A0D
:104D1000134399464B4605981843C0B2002800D16A
:104D200078E006CC089C029B8A1820003493FBF79D
:104D3000AFFD2D4B359A9B1A1A2B00D861E11B222F
:104D400020002E4931F00CFC2800359A349930F0BF
:104D5000B3FC0400099B10225046294900931C4BC8
:104D6000FBF71CFF20003B9A3A9930F0A5FC036842
:104D700004000C3B1B68C318DD6F002D00D143E11C
:104D80002B7F002B67D02723E95C200030F00EFC3E
:104D900030F07CFB3A98049B984201D00CF0D2FB97
:104DA0003498029B984201D00CF0CCFB129800285A
:104DB00001D00CF0C7FB0E98002801D00CF0C2FB0C
:104DC0000A9800281ED00CF0BDFB1BE03022051015
:104DD000A42605101C22051024220510100F022005
:104DE00030150020883C0020FFFFFF3F281B0510E6
:104DF000A03C002034150020301B0510482205106F
:104E0000A5020110099841B03CBC90469946A246C3
:104E1000AB46F0BD03235B42099382E7380019F0EB
:104E2000B5FC3B68814A9B690A21934200D121E489
:104E3000380098470100FFF71DFC380019F0A6FC68
:104E40003B687A4A9B690A21934200D125E53800E4
:104E50009847010021E5280019F098FC2B68734A57
:104E60009B690A21934200D18FE7280098470100EF
:104E70008BE761683AAB8C469A4623685046634498
:104E80001A0021683CAE04963A96FBF701FD68498A
:104E9000504631F08FFB3B9A3A99280030F00CFCD9
:104EA0000AAB349334AB19000893FBF77DFF30F065
:104EB000DDFB3A98B04201D00CF044FB01235B4289
:104EC00009932EAB984688E4616823688C46049E5B
:104ED00063441A00504621683A96FBF7D9FC5549BD
:104EE000504631F067FB3B9A3A99280030F0E4FBDA
:104EF00012AB08993493FBF757FF30F0B7FB3A98A1
:104F0000B04201D00CF01EFB02235B42099336AB8A
:104F10000293FFE6280012F0C9FF474C002801D198
:104F2000FFF762FB45492000FBF708FD280012F05F
:104F3000D9FF43483FF01AF9424D2B78BFF35B8FFE
:104F4000DB0701D5FFF758FB280012F0AFFF002860
:104F500001D1FFF751FB3C493C48FBF7EFFC28002F
:104F600012F0C0FF3A483FF001F93A4D2B78BFF3F9
:104F70005B8FDB0701D5FFF747FB280012F096FF98
:104F8000002801D1FFF740FB33493448FBF7D6FC3A
:104F9000280012F0A7FF32483FF0E8F8314D2B7897
:104FA000BFF35B8FDB0701D5FFF736FB280012F05C
:104FB0007DFF002801D1FFF72FFB2B492B48FBF782
:104FC000BDFC280012F08EFF29483FF0CFF8FFF714
:104FD00023FB4946083230A80CF0A6FAD6E5102289
:104FE000614602980CF0A0FAECE51022390030A8D6
:104FF0000CF09AFA40E61022390002980CF094FA6C
:1050000051E61C4825F02AF925F000F919001A4844
:1050100025F03CF90521184825F038F901211648FA
:1050200025F034F90621144825F030F95D0300100D
:10503000BC200510B4210510583C00202C20051080
:1050400089050010902500203C200510883C002098
:10505000710500109425002048200510A03C002078
:10506000590500108C25002080200510703C002080
:10507000410500106416051068150510F0B5C64608
:1050800000B5A44E040033780D00BFF35B8F98B0D9
:10509000DB0700D408E1A04E3378BFF35B8FDB075A
:1050A00000D4F0E09D4E3378BFF35B8FDB0700D474
:1050B000D8E0012217009A4E3378BFF35B8F1F4070
:1050C0001A4200D1A4E0974E3378BFF35B8FDB0721
:1050D00000D48CE0944E3378BFF35B8FDB0700D4B1
:1050E00074E0072C00D86DE0904A68469049FEF7BE
:1050F0000FF8904B019A9B1A032B00D803E104226E
:1051000068468D4931F02CFA070008AE0696036810
:1051100008370400BB4200D1E9E006938368089396
:10512000636806A80793002363602372834B27609C
:1051300006CB31F015FA082290460EAF0C970368A3
:1051400080440400434500D1D7E00C9383680E935C
:1051500063687B480D93434623600023237263609A
:105160000D9A0C9930F0A8FA30F080FA0C98B842F9
:1051700001D00CF0E7F90698B04201D00CF0E2F94A
:10518000009802AB984201D00CF0DCF96D4B1C6822
:105190006D4B0ACB5B1A9A10172B00D8B6E04C6106
:1051A000072C0FD9694B1968694C0B7A0A792000D2
:1051B000097811F029FC002D00D086E018B004BC5D
:1051C0009046F0BD634BA4001B599F46300012F07F
:1051D0006DFE002800D184E75F496048FBF7AEFB15
:1051E000300012F07FFE5E483EF0C0FF79E73000ED
:1051F00012F05CFE002800D16CE75A495A48FBF7D0
:105200009DFB300012F06EFE58483EF0AFFF61E7A4
:10521000300012F04BFE002800D154E746490CA89C
:10522000FBF78CFB524912A8FBF788FB514818AAE0
:105230000CA9076047608760FBF74AFC300012F05A
:1052400051FE4D483EF092FF129814AB984201D0A7
:105250000CF078F90C980EAB984200D133E70CF0C3
:1052600071F930E7300012F021FE002800D120E76C
:1052700042493248FBF762FB300012F033FE4048EF
:105280003EF074FF15E7300012F010FE002800D148
:1052900008E73C492548FBF751FB300012F022FE9D
:1052A00039483EF063FFFDE6300012F0FFFD0028B4
:1052B00000D1F0E635491E48FBF740FB300012F004
:1052C00011FE33483EF052FFE5E6200011F0C8FC25
:1052D00074E7304B67E7304B65E7304B63E7304BA3
:1052E00061E7304B5FE7304B5DE7304B5BE7102207
:1052F000390030000CF018F912E741463800083246
:105300000CF012F924E72A4824F0A8FF05212948C7
:1053100024F0BCFFD8250020CC250020D425002077
:10532000DC250020E0250020D0250020F03D0020D5
:10533000383E0020FFFFFF3F281B0510203E0020C5
:105340008039002030150020100F0220502100204D
:105350003C0E022064220510501B0510083E002060
:1053600019060010381B05105C3E002031060010A5
:10537000301B0510503E00201D0A0010181B0510A0
:1053800049060010081B051061060010F41A0510EC
:10539000790600105022002070210020902100206A
:1053A0006021002040210020202200203021002008
:1053B0006416051068150510F0B5C64600B54F4DCA
:1053C00094B02B78BFF35B8FDB0700D478E04C4CB4
:1053D0004C4B01211868FFF751FE142008F078FBB0
:1053E000494B00211868FFF749FE06CC04AD8A1826
:1053F00002A80295FBF74CFA444B039A9A4200D15B
:1054000078E00122424902A831F0AAF8414B08A8ED
:1054100000229B5E404910220093404BFBF7BEFBED
:10542000039C099A029BA018AB425FD00499884262
:1054300058D908990AAEB046B14259D00A9EB04236
:105440002AD902A831F08CF80400270010AE0E967D
:1054500023680837BB422DD00E93A368109363686E
:105460000EA80F9300230121276063602372FCF7CD
:105470009DFC0E98B04201D00CF064F808984045AD
:1054800001D00CF05FF80298A84201D00CF05AF855
:1054900014B004BC9046F0BD00940022002108A87E
:1054A00030F094FF0400270010AE0E9623680837F2
:1054B000BB42D1D11022390030000CF035F8CEE7D4
:1054C000280012F0F3FC0E4C002800D180E71449AC
:1054D0002000FBF733FA280012F004FD11483EF0DB
:1054E00045FE75E70AAB98460899AAE70F219EE7A3
:1054F0000F26A4E70C4824F0B1FEC0461426002075
:105500007C3F00203015002034150020FFFFFF3FB6
:1055100054250510200E0220A5020110A426051016
:10552000842205104108001064160510F0B54546A8
:10553000DE4657464E46E0B5D24C0500237891B082
:10554000BFF35B8FDB0700D413E1CF4C2378BFF3AD
:105550005B8FDB0700D4FBE0CC4C2378BFF35B8F81
:10556000DB0700D4E3E004AB994606AB049398460E
:105570004A460023C64E059313723378BFF35B8F00
:10558000DB0700D4AAE0C34B01211B689B46C24B3A
:105590001868FFF773FD142008F09AFABF4B00213A
:1055A0001868FFF76BFD012D3DD0022D13D0BC4FC5
:1055B00038000EF017FEFA20C00008F089FA0498AF
:1055C000404501D00BF0BEFF11B03CBC904699465F
:1055D000A246AB46F0BDB34B1B78002B00D0E3E0F6
:1055E000B14D6A682B68D11A8A100F2900D83FE1A3
:1055F000AE4A01269246AA4F0AACB200D358994649
:10560000012E00D127E1022E00D1D5E05B460A939E
:105610004B4663600423220000933800A449EB3317
:1056200011F048FEC4E7A04D2B686A68934200D190
:1056300022E1A04E0AAC30000FF008FA9E4B102277
:105640009E4900902000FBF7A9FA48460B9A0A9958
:1056500030F086FF0A980CAB984201D00BF072FF35
:10566000904B1B78002B00D0C8E08D4B01269A464A
:105670005F462B686A68D21A9210B24200D8B9E02D
:10568000B200D3589B46012E10D027606360022ED3
:1056900000D17FE004232200009349465046EB33BB
:1056A00011F008FE032E17D1574681E72000804AEB
:1056B0008349FDF72DFD5B4603930423784800934F
:1056C0002100EB3302AA029711F0F4FD0A980CAB0B
:1056D000984201D00BF036FF0136CAE7300012F0D5
:1056E000E5FB002800D14EE7754B0AAC06CB200045
:1056F0008A180CAF0A97FBF7CBF87249200030F0FC
:1057000059FF6B4B200006CB30F02AFF01006E489A
:1057100030F056FD300012F0E5FB6C483EF026FDFF
:105720000A98B84200D12EE70BF00CFF2BE72000BF
:1057300012F0BCFB002800D115E765496548FBF76E
:10574000FDF8200012F0CEFB63483EF00FFD0AE7A3
:10575000200012F0ABFB002800D1FDE65F49544861
:10576000FBF7ECF8200012F0BDFB5D483EF0FEFCBC
:10577000F2E6200012F09AFB002800D1E5E6594934
:105780004F48FBF7DBF8200012F0ACFB56483EF028
:10579000EDFCDAE60423220000934E494048EB3347
:1057A00011F088FD013664E7474B504806CB2FF0D7
:1057B00083FF2FF05BFF13E751462000FBF7BEF895
:1057C0005B4602934B460393042338000093210069
:1057D000EB3302AA11F06EFD0A980CAB984201D08F
:1057E0000BF0B0FE2B686A680136D21A9210B242F2
:1057F00000D902E731003E4824F048FD304B3B48D9
:1058000006CB2FF059FF2A4B06CB2FF055FF070090
:10581000012238492FF050FF2E4B380006CB2FF0D5
:105820004BFF036807000C3B1A684A238218D168B3
:1058300099430B0008210B43D3602F4902222FF01C
:105840003BFF30000FF002F90100380030F008F99A
:105850002FF00CFF09E75B4623604B46636004238F
:105860002200009338001649EB3311F023FDB9E70D
:1058700003211F4824F00AFD00221D48110024F0D6
:1058800005FDC046BC250020C8250020C0250020FD
:10589000C4250020441500203015002034150020B8
:1058A0003C0E0220280F022088260020CC1705106D
:1058B000D83D002000090220A4260510A5020110F1
:1058C000903D0020B0220510C03D0020E1070010EF
:1058D000A0220510A83D0020F9070010982205100D
:1058E000110800108C2205102908001080390020B2
:1058F0006815051054250510001E0510F0B5C646A4
:1059000000B5274E0021300086B00FF059F8041E74
:1059100041D00122234B01211A70234B02AD18689C
:105920009846FFF7ABFB142008F0D2F81F4F002178
:105930003868FFF7A3FB2A001D4B009503CB03C279
:105940001B786846137009236A46019300230121DE
:105950005374FCF72BFA0098A84201D00BF0F2FD2B
:105960000120FFF7E3FDFA20800008F0B1F843467C
:1059700001211868FFF782FB142008F0A9F83868A5
:105980000021FFF77BFB30000FF068F8200006B025
:1059900004BC9046F0BD0220FFF7C8FDF6E7C04604
:1059A00000090220230F02203015002034150020AA
:1059B000B8220510F0B5DE4657464E464546E0B5DE
:1059C000F04CE5B02378BFF35B8FDB0701D400F028
:1059D0004AFEED4C2378BFF35B8FDB0701D400F068
:1059E0002FFEEA4C2378BFF35B8FDB0701D400F076
:1059F00014FEE74C2378BFF35B8FDB0701D400F084
:105A0000F9FDE44C2378BFF35B8FDB0701D400F092
:105A1000DEFD01221500E04C2378BFF35B8F1D40B3
:105A20001A4201D100F092FDDC4B0C2118009A467D
:105A30000EF0DEFB002801D100F071FD642008F0BB
:105A400047F800239B4601335D469B465B46002B8F
:105A500000D0A5E30C2150460EF0CAFB8346002877
:105A600000D142E1CE4B06AE1F685C680496002F61
:105A700001D100F0D6FC46940F2C01D900F066FC51
:105A8000012C01D000F017FD3B7802AA13743200FC
:105A9000002305941355059AC24B9A4201D100F098
:105AA000FDFD0122C04904A830F05AFDBF4B04A8F7
:105AB00006CB30F055FD07000CAB0A9398460368FF
:105AC00008370400BB4201D100F0DBFC0A93836875
:105AD0000C9363680B9300232760B54F63602372B8
