:020000041000EA
:1000000000B5324B212058609868022188439860DF
:10001000D860186158612E4B002199600221596106
:100020000121F02299502B49196001219960352056
:1000300000F044F80222904214D00621196600F024
:1000400034F8196E01211966002018661A6600F04E
:100050002CF8196E196E196E052000F02FF8012189
:100060000842F9D1002199601B49196000215960AB
:100070001A491B48016001219960EB211966A021F2
:10008000196600F012F800219960164914480160C1
:100090000121996001BC002800D000471248134993
:1000A000086003C880F30888084703B5996A0420EC
:1000B0000142FBD001200142F8D103BD02B5186610
:1000C0001866FFF7F2FF186E186E02BD00000240BE
:1000D000000000180000070000035F00212200005C
:1000E000F4000018222000A00001001008ED00E03C
:1000F00000000000000000000000000074B24E7A12
:1001000000200420F7010010C3010010C5010010F9
:10011000C1010010C1010010C1010010C101001097
:10012000C1010010C1010010C1010010C701001081
:10013000C1010010C1010010C9010010CB01001065
:10014000CD010010CD010010CD010010CD01001037
:10015000CD010010CD010010CD010010CD01001027
:10016000CD010010CD010010CD010010CD01001017
:10017000CD010010CD010010CD010010CD01001007
:10018000CD010010CD010010CD010010CD010010F7
:10019000CD010010CD010010CD010010CD010010E7
:1001A000CD010010CD010010CD010010CD010010D7
:1001B000CD010010CD010010CD010010CD010010C7
:1001C00000BE00BE00BE00BE00BE00BE00F04BF888
:1001D000103800BEF2EB8871D8DF051000E0051082
:1001E0003402001090A31AE700202149086006C8D5
:1001F00081F3088810471F48006800282FD10DA4FC
:100200000ECC002902D000F012F8F9E71A491B4A77
:10021000002000E001C19142FCD1194988471949E9
:1002200088471949884700BEFDE701C901C29A42C3
:10023000FBD3704700E00510C000002030210020F3
:10024000700006100000042000000420700006105A
:1002500000100420001004200000000070470B482C
:1002600010F0C2F80047EFF30580C0B270470000FD
:1002700008ED00E0000000D030210020F81102203D
:10028000B5E3001019CF0010E9E400105756000044
:1002900006005250ABB36053C032051006005250F6
:1002A000861C0302D0320510060052505422A29D33
:1002B000D832051005005250DE65F4687000061053
:1002C000F8B5C0460448054B10B5834203D0044B33
:1002D000002B00D0984710BD302100203021002095
:1002E0000000000006480749091A8B10C90FC918F9
:1002F00010B5491003D0044B002B00D0984710BD17
:1003000030210020302100200000000010B5074CF3
:100310002378002B09D1FFF7D5FF054B002B02D026
:10032000044800E000BF0123237010BD68230020B3
:100330000000000090150510054B10B5002B03D0F0
:100340000449054800E000BFFFF7CCFF10BDC046E0
:10035000000000006C230020901505100800704775
:10036000044B10B518680833984201D011F02EF9EB
:1003700010BDC046003D0020044B10B5186808337E
:10038000984201D011F022F910BDC046D03C0020A7
:10039000044B10B518680833984201D011F016F9D3
:1003A00010BDC046E83C0020044B10B51868083367
:1003B000984201D011F00AF910BDC046603D0020FE
:1003C000044B10B518680833984201D011F0FEF8BC
:1003D00010BDC046483D0020044B10B518680833D6
:1003E000984201D011F0F2F810BDC046303D002017
:1003F000044B10B518680833984201D011F0E6F8A4
:1004000010BDC046183D0020044B10B518680833D5
:10041000984201D011F0DAF810BDC046B83C002077
:10042000044B10B518680833984201D011F0CEF88B
:1004300010BDC04624400020044B10B51868083396
:10044000984201D011F0C2F810BDC0463C400020D7
:10045000044B10B518680833984201D011F0B6F873
:1004600010BDC04654400020044B10B51868083336
:10047000984201D011F0AAF810BDC0466C4000208F
:10048000044B10B518680833984201D011F09EF85B
:1004900010BDC046943F0020044B10B518680833C7
:1004A000984201D011F092F810BDC046AC3F002038
:1004B000044B10B518680833984201D011F086F843
:1004C00010BDC046DC3F0020044B10B5186808334F
:1004D000984201D011F07AF810BDC046C43F002008
:1004E000044B10B518680833984201D011F06EF82B
:1004F00010BDC046F43F0020044B10B51868083307
:10050000984201D011F062F810BDC0460C400020A6
:10051000044B10B518680833984201D011F056F812
:1005200010BDC04620410020044B10B518680833A8
:10053000984201D011F04AF810BDC0463841002061
:10054000044B10B518680833984201D011F03EF8FA
:1005500010BDC046703C0020044B10B5186808332D
:10056000984201D011F032F810BDC046A03C0020E6
:10057000044B10B518680833984201D011F026F8E2
:1005800010BDC046883C0020044B10B518680833E5
:10059000984201D011F01AF810BDC046583C002016
:1005A000044B10B518680833984201D011F00EF8CA
:1005B00010BDC046743E0020044B10B518680833C7
:1005C000984201D011F002F810BDC0468C3E0020C8
:1005D000044B10B518680833984201D010F0F6FFAC
:1005E00010BDC046A43E0020044B10B51868083367
:1005F000984201D010F0EAFF10BDC046BC3E00207A
:10060000044B10B518680833984201D010F0DEFF93
:1006100010BDC046D43E0020044B10B51868083306
:10062000984201D010F0D2FF10BDC046083E002015
:10063000044B10B518680833984201D010F0C6FF7B
:1006400010BDC0465C3E0020044B10B5186808334E
:10065000984201D010F0BAFF10BDC046203E0020E5
:10066000044B10B518680833984201D010F0AEFF63
:1006700010BDC046F03D0020044B10B5186808338B
:10068000984201D010F0A2FF10BDC046383E0020B5
:10069000044B10B518680833984201D010F096FF4B
:1006A00010BDC046F83E0020044B10B51868083352
:1006B000984201D010F08AFF10BDC046103F0020C4
:1006C000044B10B518680833984201D010F07EFF33
:1006D00010BDC046283F0020044B10B518680833F1
:1006E000984201D010F072FF10BDC046403F00207C
:1006F000044B10B518680833984201D010F066FF1B
:1007000010BDC046583F0020044B10B51868083390
:10071000984201D010F05AFF10BDC0465041002051
:10072000044B10B518680833984201D010F04EFF02
:1007300010BDC04668410020044B10B5186808334E
:10074000984201D010F042FF10BDC0469C400020EE
:10075000044B10B518680833984201D010F036FFEA
:1007600010BDC046FC400020044B10B5186808338B
:10077000984201D010F02AFF10BDC046CC400020A6
:10078000044B10B518680833984201D010F01EFFD2
:1007900010BDC046E4400020044B10B51868083373
:1007A000984201D010F012FF10BDC046B4400020A6
:1007B000044B10B518680833984201D010F006FFBA
:1007C00010BDC04684400020044B10B518680833A3
:1007D000984201D010F0FAFE10BDC046783D0020CE
:1007E000044B10B518680833984201D010F0EEFEA3
:1007F00010BDC046C03D0020044B10B5186808333A
:10080000984201D010F0E2FE10BDC046A83D002085
:10081000044B10B518680833984201D010F0D6FE8A
:1008200010BDC046D83D0020044B10B518680833F1
:10083000984201D010F0CAFE10BDC046903D002085
:10084000044B10B518680833984201D010F0BEFE72
:1008500010BDC0467C3F0020F8B505000E00541ABC
:1008600010D40BD0200010F0A9FE0719220031008F
:100870002860AF6010F09CFE6F60F8BD0027046038
:100880008460F9E7014829F02DFDC0469015051058
:1008900070B505000E0082B000291DD0541A0194D5
:1008A0000F2C0BD80068012C1BD10B780370019C16
:1008B000286800236C60035502B070BD002201A9B6
:1008C00035F0CCFB019B2860AB602200310010F0BA
:1008D0006FFE019C2868ECE7002A05D1002400681F
:1008E000E7E7002CE5D0F0E7014829F0E3FCC0463B
:1008F000C4150510F0B5C646561A04000D001700C1
:1009000000B5B310002E14DB0020002B02D0300005
:1009100010F054FE831998462060A360AF4203D0C4
:100920003200290010F044FE4346636004BC904648
:10093000F0BD014829F0D6FC90150510F0B5070070
:10094000083704000E0083B00760002925D0080096
:1009500046F01EFB0500030001900F280CD801286B
:1009600007D132782272002220006360FA5403B06B
:10097000F0BD0028F7D008E00022200001A935F0E2
:100980006DFB0700019B2060A36038002A00310046
:1009900010F00EFE019B2768E5E7014829F08AFC6C
:1009A000C415051070B50D4E34687568AC420AD098
:1009B00023002068083398420BD0183410F006FE4C
:1009C000A542F5D13568002D02D0280010F0FEFDBB
:1009D00070BD1834A542EBD1F4E7C046EC3E0020D0
:1009E00070B50D4E34687568AC420AD0230020689B
:1009F000083398420BD0183410F0E8FDA542F5D129
:100A00003568002D02D0280010F0E0FD70BD1834CC
:100A1000A542EBD1F4E7C046703F002070B50D4E03
:100A200034687568AC420AD02300206808339842C5
:100A30000BD0183410F0CAFDA542F5D13568002D51
:100A400002D0280010F0C2FD70BD1834A542EBD1D1
:100A5000F4E7C046503E002070B50D4E346875680E
:100A6000AC420AD023002068083398420BD01834D7
:100A700010F0ACFDA542F5D13568002D02D028005C
:100A800010F0A4FD70BD1834A542EBD1F4E7C046C8
:100A90008041002070B50D4E34687568AC420AD0B4
:100AA00023002068083398420BD0183410F08EFDD4
:100AB000A542F5D13568002D02D0280010F086FD42
:100AC00070BD1834A542EBD1F4E7C04614410020B4
:100AD000F0B54746CE4680B5571A9046FA109300B7
:100AE0009B180C0019015B1819025B1819045B189C
:100AF0005B009B18264A060083B0934245D8002528
:100B0000002B03D0380010F059FD0500EF193560B7
:100B1000B760A0450BD12AE0012F33D11B782B728F
:100B2000002318346F60C3551835A0451FD0280026
:100B300023680830994667682860002B1DD001970C
:100B40000F2FE9D90022280001A935F087FA019B6F
:100B50002860AB603A00494610F02AFD0023019F4F
:100B6000286818346F60C3551835A045DFD175600B
:100B700003B00CBC90469946F0BD002FD0D005487C
:100B800029F098FB002FCBD0E4E7034829F0AAFB1B
:100B900055555505C41505109015051008B4F0B548
:100BA0001C2382B000AF84B06E46FB1804CB040057
:100BB000102130003B600FF0B9FB05002000083029
:100BC00020607D600F2D10D8012D0BD1337823725A
:100BD00000236560BD464355200002B0F0BC08BC50
:100BE00001B01847002DF3D007E000222000391D86
:100BF00035F034FA7B682060A3602A00310010F0E1
:100C0000D7FC7D682068E3E7F0B587B02D2250213E
:100C1000684602AF009735F03FFA3A4C019A20003F
:100C2000009934F08DFD036805000C3B1B68C31868
:100C3000DE6F002E64D0337F002B3AD02723F15C87
:100C4000280034F0F7FC34F065FC342220002E49F3
:100C500034F076FD23680C3B1B68E318DD6F002D34
:100C60004ED02B7F002B31D02723E95C200034F0BD
:100C7000E1FC34F04FFC2000019A009934F060FD53
:100C8000036804000C3B1B68C318DD6F002D37D0D0
:100C90002B7F002B27D02723E95C200034F0CAFCEF
:100CA00034F038FC0098B84201D010F08FFC07B047
:100CB000F0BD30001DF0AEFD3368144A9B690A2177
:100CC0009342BDD0300098470100B9E728001DF0DD
:100CD000A1FD2B680D4A9B690A219342C6D02800CA
:100CE00098470100C2E728001DF094FD2B68074AD1
:100CF0009B690A219342D0D0280098470100CCE795
:100D000029F0C8FA80390020581605105D0300103C
:100D100070B5214C0C21200013F0AEFA002805D14B
:100D20000D21200013F0A8FA002825D01B4C252205
:100D300020001B4934F004FD23680C3B1B68E318BA
:100D4000DD6F002D25D02B7F002B08D02723E95CF9
:100D5000200034F06FFC34F0DDFB012070BD280072
:100D60001DF058FD2B680F4A9B690A219342EFD072
:100D7000280098470100EBE70E21200013F07CFAD1
:100D80000028D3D10F21200013F076FA0028E5D0F7
:100D9000CCE729F07FFAC0463C0E022080390020C3
:100DA000901605105D030010F0B5C6460D00022137
:100DB000036800B50C3B1A680600821891601C6835
:100DC00075230419E35C82B0002B27D074233022F2
:100DD000E25433680C3B1A684A23B218D16899432D
:100DE0000B0008210B43D3602B6890CBBC4210D082
:100DF0006B46DD1D202398462178300034F074FEC8
:100E000043460122290001342B7034F099FCA7429B
:100E1000F2D1300002B004BC9046F0BDE76F002F65
:100E200012D03B7F002B03D075230122E254CDE783
:100E300038001DF0EFFC3B68044A9B699342F3D0F5
:100E4000202138009847EFE729F024FA5D030010CD
:100E5000164B10B50ACB5B1A9A10072B21D94B6899
:100E6000002B0AD1124A1178002905D0D021802008
:100E7000090680048861137010BD0D4B1A78002A92
:100E800007D0D022802112068904916100221A70B5
:100E9000F2E7D022802112068904516101221A70E2
:100EA000EAE70121034829F035FAC046100F022075
:100EB000270F0220F015051070B51F4C10222000DE
:100EC0001E4934F03DFC1E4B1B68002B25D0012B26
:100ED00029D0002220001B4934F032FC23680C3B4F
:100EE0001B68E318DD6F002D23D02B7F002B07D06C
:100EF0002723E95C200034F09DFB34F00BFB70BD30
:100F000028001DF087FC2B680F4A9B690A21934239
:100F1000F0D0280098470100ECE7042220000B499C
:100F200034F00EFCD5E708222000094934F008FC13
:100F3000CFE729F0AFF9C04680390020B816051078
:100F40001C0E0220A43705105D030010742A051042
:100F5000CC160510F0B5DE4657464E464546E0B580
:100F60000E4CF5B02378BFF35B8FDB0701D400F0A4
:100F7000C7FC0B4F0025380014F09EFF14200CF026
:100F8000EBFD20239846074C074E3800062D01D96B
:100F900000F032FCAB00F3589F46C046B825002055
:100FA000BC0E022054450020B017051015F054F96E
:100FB000216863685B1A9A101B2B01D800F0AAFD08
:100FC000886104AB0293EF4B02A899460CCB9C4678
:100FD0004B4662441968FFF75BFCEB4B039A9B1A84
:100FE000212B01D800F082FD2222E84902A835F029
:100FF000FBFAE74B039A180002999B4634F0A0FBDA
:101000008046380015F000F9E24E10223300E24924
:10101000009062A8FFF7C2FD4046639A629934F0DF
:101020008FFB804603680C3B1B684344DB6F9A468A
:10103000002B01D100F072FD1B7F002B01D100F0CD
:1010400025FC27235246D15C404634F0F3FA34F0B5
:1010500061FA629864AB984201D010F0B7FA029836
:1010600004AB984201D010F0B1FA6AAB68934B46DA
:101070000CCB9C464B466244196868A8FFF708FCF5
:10108000C14B699A9B1A212B01D800F02FFD222217
:10109000C24968A835F0A8FA699A6899584634F0A8
:1010A0004FFB8046380015F0E1F833001022BA49B2
:1010B00000906EA8FFF772FD40466F9A6E9934F06B
:1010C0003FFB804603680C3B1B684344DB6F9A463A
:1010D000002B01D100F022FD1B7F002B01D100F07D
:1010E000E6FB27235246D15C404634F0A3FA34F0A5
:1010F00011FA6E9870AB984201D010F067FA6898B8
:101100006AAB984201D010F061FA380015F0AEF8E1
:10111000A34B98460ACB5B1A9A10002800D07AE3BA
:101120000B2B01D800F0E5FC886001239D4A5B424F
:10113000136010AB0E934B460EA806CB8A18FFF730
:10114000A7FB914B0F9A9B1A202B01D800F0CEFCE5
:10115000212295490EA835F047FA216863685B1A89
:101160009A101B2B01D800F0D5FC8B6910228A49FC
:10117000009314A83300FFF711FD0F9F159A0E9BE3
:1011800010A9B8188B4201D100F063FC1099884275
:1011900000D8C8E3149916ADA94201D100F08CFC27
:1011A000169DAC46604500D8D5E30EA835F01CFA74
:1011B0000822070091461CAB1A933B68B9444B4583
:1011C00000D1D8E31A93BB681C937B681B934B46F2
:1011D0003B6000237B603B721B9A6B4B9A4201D1B0
:1011E00000F084FC714B012219001AA8994635F0D1
:1011F000FBF90822924622AB209303688244070041
:10120000534501D100F045FC2093836822937B680D
:101210002168219353463B6000237B603B726368E7
:101220005B1A9A10172B01D800F07EFC4B69102234
:101230005949009326A83300FFF7B0FC219F279A55
:10124000209B22A9B8188B4201D100F005FC2299FD
:10125000884200D86BE3269928ADA94201D100F05D
:1012600038FC289DAC46604500D8CCE320A835F07A
:10127000BBF90822070092462EAB2C933B68BA4478
:10128000534500D1CFE32C93BB682E937B682D93FD
:1012900053463B6000237B603B722D9A3A4B9A4247
:1012A00001D100F023FC012249462CA835F09CF91D
:1012B0000822914634AB32939A4603688144070072
:1012C0004B4500D1D9E33293836834937B6821681E
:1012D00033934B463B6000237B603B7263685B1A31
:1012E0009A10132B01D800F01BFC0B6910220093FD
:1012F00038A833002849FFF751FC339F399A329BB5
:10130000B818534500D1AAE33499884200D80CE3B9
:1013100038993AADA94200D1DFE33A9DAC46604529
:1013200000D82EE332A835F05FF908220700914675
:1013300040AB3E933B68B9444B4500D131E33E930B
:10134000BB6840937B683F934B463B6000237B60C8
:101350003F9A3B720C4B9B1A0A2B00D8C6E30B2218
:1013600013493EA835F040F90822914646AB449314
:101370000368814407004B4500D184E344938368AC
:10138000469317E0783D0020FFFFFF3F041705104C
:10139000803900202C2705102D0301102817051077
:1013A000100F02202C1500206C1705109017051047
:1013B000941705107B68216845934B463B600023DA
:1013C0007B603B7263685B1A9A100F2B00D894E322
:1013D000CB681022D74900934AA83300FFF7DEFB01
:1013E000459F4B9A449B46A9B8188B4200D13AE3DB
:1013F0004699884200D8A0E24A994CADA94200D152
:1014000061E34C9DAC46604500D8E6E244A835F067
:10141000EBF808220700914652AB50933B68B94461
:101420004B4500D1E9E25093BB6852937B685193DE
:101430004B463B6000237B60519A3B72BE4B9B1A2C
:10144000042B00D852E30522BC4950A835F0CCF853
:101450000822914658AB56930368814407004B45D8
:1014600000D104E35693836858937B6821685793AF
:101470004B463B6000237B603B7263685B1A9A10AB
:101480000B2B00D835E38B681022AA4900935CA887
:101490003300FFF783FB579F5D9A569B58A9B818F6
:1014A0008B4200D1DDE25899884200D843E25C9932
:1014B0005EADA94200D103E35E9DAC46604500D815
:1014C00075E256A835F090F808220700914664AB03
:1014D00062933B68B9444B4500D178E26293BB68A4
:1014E00064937B6863934B463B6000237B603B7255
:1014F000639A914B9A4200D1F8E20122904962A886
:1015000035F072F8082291466AAB6893036881440B
:1015100007004B4500D1C9E2689383686A937B68F2
:10152000216869934B463B6000237B603B72636894
:101530005B1A9A10072B00D8E8E24B6810227D490D
:1015400000936EA83300FFF729FB699F6F9A689B91
:101550006AA9B8188B4200D187E26A99884200D8FC
:10156000E7E16E9970ADA94200D1AFE2709DAC4643
:10157000604500D85DE268A835F036F8070008221B
:1015800094460AAB089399463B68BC44654663455C
:1015900000D185E20893BB680A937B680993002316
:1015A0003D603B726E987B6070AB984201D010F04A
:1015B0000DF868986AAB984201D010F007F862986D
:1015C00064AB984201D010F001F85C985EAB984291
:1015D00001D00FF0FBFF569858AB984201D00FF0A6
:1015E000F5FF509852AB984201D00FF0EFFF4A98A8
:1015F0004CAB984201D00FF0E9FF449846AB9842BB
:1016000001D00FF0E3FF3E9840AB984201D00FF0BD
:10161000DDFF38983AAB984201D00FF0D7FF3298EF
:10162000504501D00FF0D2FF2C982EAB984201D03C
:101630000FF0CCFF269828AB984201D00FF0C6FFE0
:10164000209822AB984201D00FF0C0FF1A981CAB33
:10165000984201D00FF0BAFF149816AB984201D00F
:101660000FF0B4FF0E9810AB984201D00FF0AEFF10
:1016700043460ACB5B1A9A100B2B00D839E28B68D1
:10168000012B00D132E123686268934200D138E235
:101690001B6810222749009368A83300FFF77EFAE1
:1016A0000123002200930021254B68A834F0D2FECC
:1016B000050070AB6E93036808350400AB4200D19F
:1016C0000EE26E9383687093636808A86F9300239B
:1016D0002560237263606F9A6E9934F085FF6E986F
:1016E00070AB984201D00FF071FF68986AAB9842D6
:1016F00001D00FF06BFF5846099A089934F020F892
:10170000036804000C3B1B68C318DD6F002D00D17B
:1017100004E22B7F002B00D1DAE02723E95C2000D4
:1017200033F088FF33F0F6FE089848450AD00FF0F2
:101730004DFF07E02D030110FFFFFF3FA01705102D
:10174000A823051075B03CBC90469946A246AB460E
:10175000F0BD14F077FD216863685B1A9A10172BAF
:1017600000D8E1E148610135FFF70FFC14F060FD9E
:10177000216863685B1A9A10132B00D8D0E10861C6
:101780000135FFF702FC14F049FD216863685B1A1C
:101790009A100F2B00D8B0E1C8600135FFF7F5FBB8
:1017A00014F032FD216863685B1A9A100B2B00D885
:1017B0009FE18860380014F059FD0028D3D02168DB
:1017C00063685B1A9A100B2B00D892E18B68002B90
:1017D00000D0B4E00C338B600135FFF7D6FB14F07A
:1017E00009FD216863685B1A9A10072B00D88DE108
:1017F00048600135FFF7C9FB14F0F2FC236862680A
:101800009A4200D17DE11860062D01D1FFF7D9FB86
:101810000135FFF7BAFB0B2B00D86AE101238B607F
:101820006AAB68934B460CCB9C464B4662441968A6
:1018300068A8FFF72DF8BE4968A834F0FFFE699A42
:101840006899584633F07CFF8246380014F02AFD30
:1018500033001022B74900906EA8FFF79FF96F9AE6
:101860006E99504633F06CFF33F044FF6E9870ABC6
:10187000984201D00FF0AAFE68986AAB984201D056
:101880000FF0A4FE380014F00DFD4EE450461CF09D
:10189000C1FF53461B68A84A9B690A21934201D1A4
:1018A000FFF7D2FB504698470100FFF7CDFB5046AB
:1018B0001CF0B0FF53461B689F4A9B690A21934264
:1018C00001D1FFF711FC504698470100FFF70CFCCF
:1018D00028001CF09FFF2B68974A9B690A219342BE
:1018E00000D11CE728009847010018E7934B1B68BC
:1018F000002B00D1A5E0924908A834F09FFEFAE63B
:10190000200016F017FB002801D1FFF732FB8D49AC
:101910008D48FFF713F8200016F028FB8B4842F0A3
:1019200069FCFFF726FB14993FE43899FAE42699FD
:101930009CE46E991FE65C99C3E54A9966E50C2B19
:1019400000D183E000DC0EE742460C3B13438B6082
:101950000135FFF71AFB00220097002114A834F08C
:1019600079FD0822070091461CAB1A933B68B944E5
:101970004B4500D026E4494608321CA80FF018FE5B
:1019800023E400220097002138A834F063FD0822E8
:101990000700914640AB3E933B68B9444B4500D0AD
:1019A000CDE44946083240A80FF002FECAE4002206
:1019B000009700215CA834F04DFD082207009146F5
:1019C00064AB62933B68B9444B4500D086E5494619
:1019D000083264A80FF0ECFD83E500220097002197
:1019E0004AA834F037FD08220700914652AB5093C5
:1019F0003B68B9444B4500D015E54946083252A82A
:101A00000FF0D6FD12E500220097002126A834F041
:101A100021FD0822070092462EAB2C933B68BA4466
:101A2000534500D02FE4514608322EA80FF0C0FDD8
:101A30002CE40097002200216EA834F00BFD070073
:101A40009DE5434908A834F0F9FD54E62C238B604A
:101A50007EE70F21FFF79BFB0F21FFF7F9FB0F211B
:101A600053E40F2120E50F21C3E40F2176E5494619
:101A7000083258A80FF09CFDF7E44946504608325A
:101A80000FF096FD22E44946083246A80FF090FD7B
:101A900090E45146083222A80FF08AFDFFF7B7FB09
:101AA0001022614648460FF083FD76E5494608322C
:101AB0006AA80FF07DFD32E50F25AC46FFF772FBFB
:101AC0000F25AC46FAE40F25AC469CE40F25AC4646
:101AD0004EE50F25AC46FFF7C6FB0F25AC461EE4CE
:101AE0001022290070A80FF063FDEDE5194828F0D9
:101AF000F9FB0221184828F00DFC0321164828F0B4
:101B000009FC00221448110028F004FC01211248AD
:101B100028F000FC0621104828F0FCFB28F0BAFB56
:101B200004210D4828F0F6FB05210B4828F0F2FBB4
:101B30004C1705102D0301105D0300102C1500201B
:101B4000A8170510D8160510783D0020C907001009
:101B5000AC170510EC160510F0150510F0B545464C
:101B60004E46DE4657460024E0B5824B824D9846ED
:101B7000824E8BB0002C6ED0022C00D1AAE01D2228
:101B80004146280033F0DCFD736831685A1AD210E0
:101B900093009B1818011B1818021B1818041B1817
:101BA0005B009A18A24200D8D9E063001B19DB0041
:101BB000C91806C9280033F0C3FD052270498246C2
:101BC00033F0BEFD6F4B99464A461B685268D21AE5
:101BD0009210A24200D8C2E0A700DB5910226A4945
:101BE000009304A8694BFEF7D9FF5046059A049963
:101BF00033F0A6FD824603680C3B1B685344DB6F41
:101C00009B46002B00D1AEE01B7F002B00D17CE077
:101C100027235A46D15C504633F00CFD33F07AFC52
:101C2000049806AB984201D00FF0D0FC4B464A46D0
:101C30001B685268D21A9210A24200D88FE0D95D78
:101C4000534F380014F02EFC02A90855062C0AD078
:101C50000134002C90D100214D4814F023FC02AB3C
:101C600018700134F5E70722380014F00FF804006B
:101C700014200BF071FF3A222800464933F060FD32
:101C8000002C5CD106224449280033F059FD2B6812
:101C90000C3B1B68EB18DE6F002E64D0337F002BEB
:101CA00050D02723F15C280033F0C4FC33F032FC21
:101CB000002C07D0380014F0FFF814200BF04CFF74
:101CC000FFF748F920000BB03CBC90469946A2466D
:101CD000AB46F0BD2B4B0ACB5B1A9A100B2B44D9A9
:101CE0002B4F0B7A3800994614F0C0FA00281BD10C
:101CF0002023494600229943284B38001A6014F0EB
:101D0000D1FB02AB98700134A3E758461CF082FD6A
:101D10005B461B68224A9B690A21934200D17AE7FD
:101D200058469847010076E7380014F0BBFA0028BF
:101D3000DED020214B460B4319000122DCE70A22AA
:101D40001849A1E730001CF065FD3368144A9B690F
:101D50000A219342A7D0300098470100A3E7210051
:101D6000114828F0D7FA28F095FA02210E4828F0F9
:101D7000D1FAC046E017051080390020A0260020C7
:101D800044260510544500202D0301102C27051072
:101D9000BC0E022000180510D81705102C150020C5
:101DA0005D030010CC170510F0150510F0B58BB0D1
:101DB00000290ADB214B1C685A68121B92109142C1
:101DC00003DA35D24368002B01D10BB0F0BD1C4AB9
:101DD000890006AE0F5915681C00006804960A2B8E
:101DE0001DD8002827D0012B1BD1037804A90B7222
:101DF0000023059434192370124C043320000093FF
:101E000002AAEB330295039715F098FA0498B042B2
:101E100001D00FF0DBFB200012F028FAD5E70A24EE
:101E2000DFE70100220030000FF0C2FB04A9DFE76A
:101E3000054828F06FFA054828F03CFA882600206B
:101E4000441500203C0E0220F0150510C4150510A5
:101E500070B5050086B000293AD14368002B01D146
:101E600006B070BD6E4602AC019100943000317234
:101E7000D91D34F039FA294B019A9B1A062B49D9FE
:101E800007222749300034F0AFFB06CD300034F094
:101E9000ABFB30000221FFF789FF0098A04201D080
:101EA0000FF094FB1F4B00941A6802929A88A2804C
:101EB0009B79A371072301930023F373300003215F
:101EC000FFF774FF0098A042CAD00FF07FFBC7E76E
:101ED000154B02AC00941A686E4602929A88300044
:101EE000A2809B790221A371072301930023F3733E
:101EF000FFF75CFF0098A04201D00FF067FB0B4B8F
:101F000000941A6802929B88A38006230193002301
:101F1000B373D3E7064828F0E5F9C046FFFFFF3F5B
:101F20003C1805105818051050180510A489051004
:101F3000EC1605100F2370B56D4C6E4E22688CB0F8
:101F40009A43002333716C4B22601B78002B02D024
:101F5000002800D069E0694D0C21280012F08CF9AE
:101F6000002836D0012322681343654A2360136892
:101F70005268934200D1ADE002AC009406CB6846B3
:101F80008A18FEF785FC5F4906A8FEF7D7FC06A86D
:101F90000221FFF70BFF069808ADA84201D00FF011
:101FA00015FB594906A8FEF7C9FC06A80321FFF74F
:101FB000FDFE0698A84201D00FF008FB0098A04251
:101FC00001D00FF003FBFA2040000BF0C5FD0CB070
:101FD00070BD0D21280012F04FF900283ED00223D9
:101FE000226813432360464B05CB121AD21093008C
:101FF0009B1819015B1819025B1819045B185B0028
:102000009A18012A6FD908AC06948169C26906A89A
:102010008A18FEF73DFC06A80121FFF719FF069874
:10202000A042D0D00FF0D2FACDE7384D2322384964
:10203000280033F085FB280033F05CFB354906A807
:10204000FEF77CFC06A80121FFF7B0FE069808AB5E
:10205000984200D17FE70FF0B9FA7CE70E21280003
:1020600012F00AF900282AD10F21280012F004F9F1
:102070000028ACD00823226813432360204B03CBF5
:10208000091AC9108B005B181A019B181A029B18B9
:102090001A049A1852005218032A20D908AC069440
:1020A000816CC26C06A88A18FEF7F2FB06A8002114
:1020B000FFF7CEFE0698A04200D082E783E7012317
:1020C000FA202268337103331343236040000BF07E
:1020D00043FD7CE700221048110028F01BF9032182
:1020E0000D4828F017F901210B4828F013F9C046D4
:1020F00060460020200E0220280F02203C0E022005
:102100009426002050180510A4890510803900205D
:102110006018051084180510F015051010B586B06C
:10212000104B02AC00941A68684602929A88032108
:10213000A2809B796A46A371072301930023D3737E
:10214000FFF734FE0098A04201D00FF03FFAFA20CA
:1021500080000BF001FD00210020034A0CF05CFD23
:1021600006B010BD90180510FFFF7F0070B5046821
:1021700045680600AC420AD0230020680833984224
:102180000CD018340FF022FAA542F5D13568002D95
:1021900002D028000FF01AFA300070BD1834A542A2
:1021A000EAD1F3E7F0B5DE4657464E464546E0B580
:1021B0005A4CA544012800D1E8E0594B9868002802
:1021C00001D00FF003FA574B9A4630CBAC4208D0FF
:1021D0002068002800D19BE00C340FF0F7F9AC42E6
:1021E000F6D153461868002801D00FF0EFF94E4B96
:1021F0001868002801D00FF0E9F94C4C206813F062
:10220000C3FA0022606811000AF09EFF1F21606877
:102210000AF078FF0022A06811000AF095FFA0687C
:102220001F210AF06FFF424B1868002801D00FF001
:10223000CDF9404B1868002801D00FF0C7F93E4B8C
:102240001868002801D00FF0C1F93C4B186800282D
:1022500001D00FF0BBF93A4B1868002801D00FF0FD
:10226000B5F9384B1868002801D00FF0AFF9364B9C
:102270001868002801D00FF0A9F9344B186800281D
:1022800001D00FF0A3F9324B1868002801D00FF0ED
:102290009DF9304B1868002801D00FF097F92E4BAC
:1022A0001868002801D00FF091F92C48FFF75EFF65
:1022B0002B48FFF75BFF2B48FFF758FF2A48FFF733
:1022C00055FF2A48FFF752FF2948FFF74FFF2948DB
:1022D000FFF74CFF2848FFF749FF2848FFF746FF64
:1022E000274B1868002801D00FF070F9254B1868AB
:1022F000002801D00FF06AF9234816F02DF99F232A
:102300009B009D443CBC90469946A246AB46F0BD1E
:102310000C34A54200D05BE763E7C04684FDFFFFB5
:10232000200E0220E021002000220020000E0220CA
:102330006021002080210020502200205021002018
:102340009021002070210020302100202022002038
:1023500040210020100F0220544500204022002080
:1023600010220020A021002030220020C0210020C7
:10237000D0210020A0260020F0210020942600205B
:10238000B021002088260020503C002050AE3500AF
:10239000EB4816F0D1F8EB4B0024994607CB07C564
:1023A000E9481B6831002B6054AA046044608460D3
:1023B000FEF7A0FA4B463200103383CB83C223CB07
:1023C00023C223CB23C200230022E0483100026055
:1023D0004360846059AAFEF78DFADD493000FEF7AC
:1023E000ADFADC4956A8FEF7A9FADB495CA8FEF76E
:1023F000A5FADA4962A8FEF7A1FAD94831000460CB
:102400004460846068AAFEF763FB68AC183C230054
:1024100020680833984201D100F0D3FD0FF0D6F8C0
:10242000B442F3D1CF493000FEF788FACE4956A81E
:10243000FEF784FACD495CA8FEF780FACC4962A881
:10244000FEF77CFACB4968A8FEF778FACA496EA86D
:10245000FEF774FA7AAFC94974A8FEF76FFAC84953
:102460003800FEF76BFA80AB1800C6499A46FEF7B3
:1024700065FAC54986A8FEF761FA00220023C34821
:1024800086AC026043600023310083608CAAFEF7B3
:102490001FFB23002068083398420BD00FF096F8FA
:1024A0002300183BA64209D01C00230020680833F3
:1024B0009842F3D12300183BA642F5D1B44930002D
:1024C000FEF73CFAB34956A8FEF738FAB2495CA8C1
:1024D000FEF734FAB14962A8FEF730FAB04968A8AD
:1024E000FEF72CFAAF496EA8FEF728FAAE4974A899
:1024F000FEF724FAAD493800FEF720FAAC49504601
:10250000FEF71CFAAB4986A8FEF718FA0023AA4882
:1025100086AC03604360836031008CAAFEF7D8FA72
:1025200023002068083398420BD00FF04FF82300A7
:10253000183BA64209D01C002300206808339842AB
:10254000F3D12300183BA642F5D19C493000FEF799
:10255000F5F99B4956A8FEF7F1F99A495CA8FEF7F0
:10256000EDF9994962A8FEF7E9F9984968A8FEF7DC
:10257000E5F997496EA8FEF7E1F9964974A8FEF7C8
:10258000DDF90022002394483100026043600023FB
:102590003A0083607AAFFEF79BFA3C00183C2300B8
:1025A00020680833984201D100F005FD0FF00EF8C5
:1025B000B442F3D189493000FEF7C0F9884956A8E2
:1025C000FEF7BCF987495CA8FEF7B8F9864962A80E
:1025D000FEF7B4F9854968A8FEF7B0F984496EA8FA
:1025E000FEF7ACF9834974A8FEF7A8F982493800D0
:1025F000FEF7A4F981495046FEF7A0F9804986A864
:10260000FEF79CF97F498CA8FEF798F97E4992A8BD
:10261000FEF794F97D4998A8FEF790F9002200236F
:102620007B4898AC026043600023310083609EAA1F
:10263000FEF74EFA23002068083398420BD00EF0C4
:10264000C5FF2300183BA64209D01C0023002068C8
:1026500008339842F3D12300183BA642F5D16D4DC3
:1026600030002900FEF76AF96B4956A8FEF766F9B3
:102670006A495CA8FEF762F9694962A8FEF75EF94B
:10268000684968A8FEF75AF967496EA8FEF756F937
:10269000664974A8FEF752F965493800FEF74EF90D
:1026A00050466449FEF74AF900220023624831008F
:1026B00002604360002386AA8360FEF709FA80ABBC
:1026C0001C009A4623002068083398420BD00EF075
:1026D0007DFF2300183BA64209D01C002300206880
:1026E00008339842F3D12300183BA642F5D12900C4
:1026F0003000FEF723F9514956A8FEF71FF950495B
:102700005CA8FEF71BF94F4962A8FEF717F94E497E
:1027100068A8FEF713F94D496EA8FEF70FF94C496A
:1027200074A8FEF70BF94B493800FEF707F950463D
:102730004949FEF703F900220023484831008FE0A1
:10274000503C0020DC2B051088260020B021002002
:10275000981805109C1805109C810510A0180510EC
:1027600094260020A0850510A4180510A8180510AF
:10277000AC180510B0180510B4180510B8180510DD
:10278000BC180510C0180510C4180510F021002051
:10279000C8180510D0180510D8180510E018051035
:1027A000E4180510E8180510F0180510F8180510C1
:1027B0000019051008190510A02600201019051091
:1027C00014190510181905101C19051020190510E9
:1027D0002419051028190510D02100202C190510E6
:1027E0003019051034190510381905103C19051059
:1027F0004019051044190510481905104C19051009
:102800005019051054190510581905105C190510B8
:10281000C0210020DC25051060190510681905107D
:102820007019051078190510801905108819051000
:102830009019051094190510302200209C190510DC
:10284000A8190510B4190510C0190510CC190510E8
:10285000D8190510E4190510EC190510A021002065
:1028600002604360002386AA8360FEF731F980ABE3
:102870001C009A4623002068083398420BD00EF0C3
:10288000A5FE2300183BA64209D01C0023002068A7
:1028900008339842F3D12300183BA642F5D1FB49F7
:1028A0003000FEF74BF8FA4D56A82900FEF746F81F
:1028B000F8495CA8FEF742F8F74962A8FEF73EF82F
:1028C000F64968A8FEF73AF8F5496EA8FEF736F81B
:1028D000F44974A8FEF732F8F3493800FEF72EF8F1
:1028E00000220023F1483100026043600023524679
:1028F0008360FEF7EDF880AB9A461C00183C23007D
:1029000020680833984200D14DE30EF05FFEB442D8
:10291000F4D1E7493000FEF711F8290056A8FEF778
:102920000DF8E4495CA8FEF709F8E34962A8FEF750
:1029300005F8E24968A8FEF701F8E1496EA8FDF73D
:10294000FDFFE04974A8FDF7F9FFDF493800FDF706
:10295000F5FF00220023DD483100026043600023C0
:1029600052468360FEF7B4F880AB9A461C00183CD0
:10297000230020680833984200D118E30EF026FEA9
:10298000B442F4D14B463200343313CB13C213CBD1
:1029900013C200241B68CE481360310004604460F9
:1029A000846057AAFDF7A6FF1822210052A80EF056
:1029B000F9FD01230122C748509251933100046070
:1029C0004460846058AAFDF795FF0C2321001A008B
:1029D000300098460EF0E6FD00220023BE4831008C
:1029E0000260436053AB1A008460FDF783FF082345
:1029F00021001A0051A89B460EF0D4FD00220023AE
:102A00007825B64831000260436053AB1A008460F9
:102A10005095FDF76FFF4B463100503325CB25C154
:102A200000220023AE4831000260436053AB1A001D
:102A30008460FDF75FFFFF228023B46050925193C2
:102A400000220023A74831000260436053AB1A0004
:102A50008460FDF74FFFFF21FF220023B4605091F7
:102A600051920022A04831000260436053AB1A002B
:102A70008460FDF73FFF4246210030000EF092FDDA
:102A8000002200237825994831000260436053AB4F
:102A90001A0084607560FDF72DFF00220023944822
:102AA000509251930260436053AB1A00310084602E
:102AB000B560FDF71FFF4B4630005C3326CB26C0C8
:102AC000002200238B4831000260436053AB1A00A0
:102AD0008460FDF70FFF4B463000683326CB26C0DD
:102AE00000220023844831000260436053AB1A0087
:102AF0008460FDF7FFFE814D814B28002B6014237D
:102B00006B600133AB607F4B2B611623EB6012F0DF
:102B100091FF012329000F2200937B48FE3301948B
:102B200012F00CF8EC2501237748FE224355FF25CF
:102B3000EF339205C2500433C550642221003000A7
:102B40000EF030FD15201723F0600138306140464B
:102B50007360043B7361013BB361013BF361013B73
:102B60003362013B7362013BB362013BF362023BA0
:102B70007363013BB363013BF363023B7364013B4B
:102B8000B364013BF364013B3365013B3063736520
:102B90005846013BB365013B16210022F365002333
:102BA00030645A48B160026043603100846069AAB1
:102BB000FDF7A0FE5A4621004EA80EF0F3FC0023BC
:102BC00000224DA8509251930100320030004D95E3
:102BD000B460FDF78FFE3F23FF2223A88346209297
:102BE0002193020020A8010053A82294F4603461CC
:102BF0007461FDF77FFEFF227F231C921D9300234B
:102C000000221CA85692579301001FAA56A81E9492
:102C10003462FDF76FFEBF23FF2218A8010018924F
:102C2000199359A81BAA1A947462B462F462FDF74E
:102C300061FEFF21FF22002314911592002214A9A6
:102C40005C925D935CA817AA1694B463FDF752FEDC
:102C5000FF23BF2210A9109211935FA813AA129408
:102C6000F46334647464FDF745FE7F22FF230C9205
:102C70000D93002300220CA96292639362A80FAA0D
:102C80000E943465FDF736FEFD2341E0F81905107A
:102C9000E8850510FC190510001A0510041A051026
:102CA000081A05100C1A0510101A05101022002021
:102CB000141A05101C1A0510281A0510301A0510D0
:102CC000381A0510401A0510481A05104022002035
:102CD00054450020100F0220402100202022002017
:102CE0003021002070210020902100205021002060
:102CF000502200208021002060210020000E0220B0
:102D000034160020801A060000090220002200204C
:102D10003F2208A90892099365A80BAA0A94746532
:102D2000B465F465FDF7E6FD424621004AA80EF0C1
:102D300039FC002300224DA8689269934AA9020039
:102D400068A84B95B466FDF7D5FD4B4647A880466D
:102D5000743326CB26C04AA8020041466BA8F4660D
:102D600034677467FDF7C6FD44A803008146B24886
:102D700026C826C3002200236E926F93802305008D
:102D8000F4506EAB424649461800FDF7B3FD2800EB
:102D900041AB984626C826C38423F45004334A46E0
:102DA0004146F45071A80433F450FDF7A3FDA24B43
:102DB0003EA81833814626CB26C0002200237492F9
:102DC000759398234246494674A8F450FDF792FD46
:102DD000994B3BA82433804626CB26C09C23F45035
:102DE00004334A464146F45077A80433F450FDF7C3
:102DF00081FD914B38A83033814626CB26C0002276
:102E000000237A927B93B02342464946380035AF7F
:102E1000F450FDF76FFD3800874B3C3326CB26C0BE
:102E2000B423F45004333900F4504A4604337DA8E7
:102E3000F450FDF75FFD00220023FF218092819373
:102E400004920593C823504607AA069104A9F4509A
:102E5000FDF750FD784B32A94833884625CB25C174
:102E6000CC23F45004333A0041462FAFF45083A8EA
:102E70000433F450FDF73EFD39006F4B543325CB3E
:102E800025C10022002386928793E0234246390021
:102E900086A8F450FDF72EFD674B2CA960338846B9
:102EA00025CB25C1E423F45004333A00414629AF31
:102EB000F45089A80433F450FDF71CFD39005E4B33
:102EC0006C3325CB25C1002200238C928D93F823EF
:102ED000390042468CA8F450FDF70CFD564D26AB48
:102EE0007835984607CD07C3FC23F45004333A00E5
:102EF000F4508FA804334146F450FDF7FBFC5946CB
:102F00004E4B00220433A1CBA1C100239292939394
:102F1000882359465B00424692A8F450FDF7EAFC2C
:102F2000474B002219009A468A2000238C600A60D1
:102F30004B6040000EF042FB5346186003005246BF
:102F40001533FF33936095AB050037009B46039420
:102F50001CE08022920593426BD240460EF02EFB7D
:102F600039687A680400531A99464346E3182C607E
:102F70006C60AB60914203D04A4620004EF0F8FAF4
:102F80004C440C376C600C355F4520D039687A684A
:102F90000398531A984628609B106860A860D8D19F
:102FA000C1460024E1E7B44200D0A7E4B1E4B44252
:102FB00000D0DCE4E6E4B44201D0FFF7EFFAFFF71B
:102FC000F9FAB44201D0FFF721FAFFF72BFA534682
:102FD000929892AC5D60002809D00EF0F7FA2300B9
:102FE0000C3BA64207D01C0020680028F5D1230026
:102FF0000C3BA642F7D11349134811F06FF8134C5C
:10300000134900230A002000A380A360E36023612A
:1030100010320830FDF76EFC0F230E4A63610E4B31
:103020001A600E4A9A8016229A713C321A75FFF77E
:1030300066F927F01FF9C0465C2C0510DC2C051042
:10304000E0210020684600203C0E0220200E0220D5
:10305000F82C051034160020BC0E022014150000B8
:10306000F0B5DE46454657464E46E0B58BB004AB5C
:103070009846002342460593137203680E000C3BEA
:103080001968050041186C3106AF03A8049715F0C4
:103090009BFA03A827F06CFF040003A815F04CFB73
:1030A000237F002B38D04D23E35C9A464E23E35C0C
:1030B000994653460021009340460423059A33F075
:1030C0005BF933681A0703D54A46049B1A703368C4
:1030D0005A0703D54A46049B5A7033689A0703D5AA
:1030E0004A46049B9A703368DB0702D54A46049B24
:1030F000DA702800059A049932F022FB0400049843
:10310000B84201D00EF062FA20000BB03CBC9046F1
:103110009946A246AB46F0BD20001BF07BFB0F4A50
:103120002368934630229B6992465B4510D1237FEA
:10313000002BBBD120001BF06DFB31222368914690
:103140009B695B45B5D03121200098478146B0E7A7
:103150003021200098478246E9E7C0465D03001011
:10316000F0B50400083020600F6816004D6883B089
:10317000002F1FD001950F2D0DD8012D1FD13B78A9
:10318000237200236560435506CE200033F02CFAED
:10319000200003B0F0BD0022200001A932F05EFF44
:1031A000019B2060A3602A0039000EF001FA019D06
:1031B0002068E6E7002DE4D0024827F07BF8002DD8
:1031C000DFD0F0E7C4150510F0B5DE4657464E4691
:1031D0004546CA4BE0B505009A46EBB027221800D9
:1031E000C74932F0ADFAC74B1022C7491CA8009559
:1031F000FDF7D4FC50461D9A1C9932F0A1FA0368E1
:1032000004000C3B1B68C318DE6F002E01D100F0D8
:1032100013FC337F002B00D1F0E22723F15C200068
:1032200032F008FA32F076F91C981EAB984201D0C1
:103230000EF0CCF9B54C2378BFF35B8FDB0700D4DD
:1032400081E301221100B24C2378BFF35B8F194058
:1032500088461A4200D1DFE204AB9B4606AB0493DA
:103260005A46002313720CAA0A92AA4C0AAA059382
:103270000B9313722378BFF35B8FDB0700D451E30A
:10328000002D12D10A980CAB984201D00EF09EF995
:10329000049806AB984201D00EF098F96BB03CBC94
:1032A00090469946A246AB46F0BD9B4B00249846FB
:1032B0009A4F01254346A5401B681D40082C39D86C
:1032C000974AA300D3589F467B683A68991AC91059
:1032D0008B005B1818011B1818021B1818041B1808
:1032E0005B005B18082B00D8ADE322AD2800C0328C
:1032F0008C49FFF735FF229B24AA914604989342FC
:1033000000D14DE306AA904200D158E35A460493F7
:10331000239B92680593249B0693002800D153E3D6
:10332000229024920023239303702298484501D0D1
:103330000EF04CF97B6839685A1AD21093009B182A
:1033400018011B1818021B1818041B185B009B1887
:10335000092B00D880E35846D83132F0C1FE24ABA7
:10336000994622AD4B462B606F4B280006CB8A183E
:10337000FDF78EFA2800059A049933F035F9504686
:10338000239A229932F0DCF9036805000C3B1B6894
:10339000C318DE6F002E00D14EE3337F002B00D127
:1033A000F6E12723F15C280032F044F932F0B2F85C
:1033B0002298484500D101E201340EF007F90C2CA7
:1033C00000D076E75EE77B683A68991AC9108B00EF
:1033D0005B1818011B1818021B1818041B185B0037
:1033E0005B18062B00D849E311009031082B00D858
:1033F00029E3C03222A822ADFFF7B2FE29005846C9
:1034000032F03CFF229824AB99469842AAD00EF0A5
:10341000DDF8A7E77B683A68991AC9108B005B183A
:1034200018011B1818021B1818041B185B005B18E6
:10343000012B00D81AE311001831002D00D138E11A
:10344000A8260720984200D3F8E222AD921928005E
:10345000FFF786FE229B24AA91460498934200D14E
:10346000B1E106AA904200D1BDE15A460493239BE4
:1034700092680593249B0693002800D1B8E122901E
:10348000249200232393037022984845BFD169E713
:1034900039687B688B4200D1FAE2002D00D066E2E9
:1034A000C02208205D1AED10AB005B191E019B19AC
:1034B0001E029B191E049B195B005B19984200D3E6
:1034C000F5E222AD8A18C2E77B683A68991AC910FA
:1034D0008B005B1818011B1818021B1818041B1806
:1034E0005B005B18052B00D8CDE211007831002D70
:1034F00000D03FE2F0260A20A4E7C0468039002031
:10350000501A05102C2705102D03011060260020ED
:10351000582600205C260020D40E022014410020F2
:10352000601B051020410020384100207B683A686C
:10353000991AC9108B005B1818011B1818021B1868
:1035400018041B185B005B18022B00D889E230328C
:10355000E24910A8FFF704FEE14B119A9B1A042BD5
:1035600000D888E20522DF4910A833F03DF8082290
:10357000914618AB16930368814406004B4500D171
:1035800044E21693836818937368396817934B461F
:1035900033600023736033727B685A1AD210930031
:1035A0009B1818011B1818021B1818041B185B0025
:1035B0009B18032B00D875E2CA6C16A8896C33F0EF
:1035C00013F8082291461EAB1C9303688144060041
:1035D0004B4500D114E21C9383681E9373681D93BE
:1035E0004B463360002373603372002D00D0C5E179
:1035F000C02008217B683A689D1AED10AB005B196A
:103600001E019B191E029B191E049B195B005B196E
:10361000994200D31CE2101806C81CA832F0E4FF3F
:10362000082294468444624624AB22939946036858
:10363000060022AD0392634500D1EDE12293836839
:103640002493736829002393039B58463360002317
:103650007360337232F012FE2298484501D00DF0AB
:10366000B5FF1C981EAB984201D00DF0AFFF169825
:1036700018AB984201D00DF0A9FF109812AB9842F8
:1036800000D0C4E66EE67B683A68991AC9108B00D0
:103690005B1818011B1818021B1818041B185B0074
:1036A0005B18042B00D8F8E111006031002D00D028
:1036B000C6E6C0260820C5E67B683A68991AC91094
:1036C0008B005B1818011B1818021B1818041B1814
:1036D0005B005B18022B00D8C3E1804930321CA884
:1036E000FFF73EFD002D00D03EE1C02008217B68A1
:1036F0003A689D1AED10AB005B191E019B191E0262
:103700009B191E049B195B005B19994200D39FE132
:10371000101806C81CA832F067FF0822944684449B
:10372000624624AB229399460368060022AD0392B9
:10373000634500D15EE122938368249373682393E9
:10374000039B3360002333727360229B04984B45C4
:1037500000D116E106AA904200D13BE15A460493FB
:10376000239B92680593249B0693002800D136E1A1
:10377000229024920023239303702298484501D07D
:103780000DF024FF1C981EAB984200D03FE6E9E5FF
:1037900030001BF03FF83368534A9B690A2193427B
:1037A00000D100E6300098470100280031F042FFC8
:1037B00031F0B0FE2298484500D0FDE501340C2CD4
:1037C00000D076E55EE5239A002A07D0012A00D1D1
:1037D0000BE149460DF0ECFE239A04980023059274
:1037E000835422984DE60493239B0593249B0693D0
:1037F0004B46229324AB9946180042E630001BF05A
:1038000009F83368384A9B690A21934200D106E5DA
:1038100030009847010002E5200014F08BFB0028DF
:1038200000D119E522AE31493000FDF787F8304963
:1038300028A8FDF783F82F492EA8FDF77FF82E4919
:1038400034A8FDF77BF82D493AA8FDF777F82C4905
:1038500040A8FDF773F82B4946A8FDF76FF82A49F1
:103860004CA8FDF76BF8294952A8FDF767F82849DD
:1038700058A8FDF763F827495EA8FDF75FF82649C9
:1038800064A8FDF75BF84346244F31003B607B6042
:10389000BB606AAA3800FDF71BF9200014F066FB34
:1038A00064AC1F4840F0A6FC23002068083398420F
:1038B0000CD00DF08BFE2300183BA64200D1CBE4C8
:1038C0001C002300206808339842F2D12300183BE3
:1038D000A64200D1C0E41C00F3E7C046204100200E
:1038E000FFFFFF3F581B05105D030010941A0510E1
:1038F000A01A0510AC1A0510B81A0510D01A051038
:10390000E41A0510F01A0510001B0510101B051015
:103910001C1B05102C1B0510301B0510144100202A
:10392000950A0010200014F005FB002800D1A7E440
:1039300061496248FDF702F8200014F017FB604867
:1039400040F058FC9CE4200014F0F4FA002800D168
:1039500077E45C495C48FCF7F1FF200014F006FBBB
:103960005A4840F047FC6CE4A8200721BFE6A82293
:10397000072097E584260B20760063E5A820072121
:1039800038E6239A002A06D0012A4BD049460DF08A
:103990000FFE239A04980023059283542298E9E6A7
:1039A000239A002A06D0012A41D049460DF000FE94
:1039B000239A04980023059283542298B2E4049336
:1039C000239B0593249B06934B46229324AB994655
:1039D0001800A7E40493239B0593249B06934B466E
:1039E000229324AB99461800C4E62B7A0370239ADD
:1039F0000498F3E61022614648460DF0D9FD9DE695
:103A0000494608321EA80DF0D3FDE7E549460832C5
:103A100018A80DF0CDFDB7E51022614648460DF01F
:103A2000C7FD0EE62B7A0370239A0498B3E72B7A2E
:103A30000370239A0498BDE726F02CFC01001A00BD
:103A4000234826F067FC1A000821214826F062FC72
:103A50001A001F4826F05EFC1A0009211C4826F0B7
:103A600059FC1A0002211A4826F054FC1A000121C0
:103A7000174826F04FFC174826F034FC1A000621A0
:103A8000134826F047FC1A000521114826F042FC95
:103A900000220F48110026F03DFC1A0004210C48BA
:103AA00026F038FC1A000321094826F033FC0100F7
:103AB0001A00074826F02EFC381B05102041002074
:103AC00011050010781A0510384100202905001052
:103AD000F0150510EC160510F0B5DE4657464E46BB
:103AE0004546E0B5F04CA7B02378BFF35B8FDB070A
:103AF00001D400F00AFDED4DED4C2378BFF35B8F50
:103B0000DB0701D400F0EEFCEA4C2378BFF35B8FB7
:103B1000DB0701D400F0D3FCE74C2378BFF35B8FC5
:103B2000DB0701D400F0B8FCE44C2378BFF35B8FD3
:103B3000DB0701D400F052FCE14C2378BFF35B8F2C
:103B4000DB0701D400F063FCDE4C2378BFF35B8F0E
:103B5000DB0701D400F074FCDB4C2378BFF35B8FF0
:103B6000DB0701D400F085FC696810AB8C460E932E
:103B70002B68296863441A000EA8FCF789FED34B12
:103B80000F9A9B1A0A2B01D800F03FFD0B22D04957
:103B90000EA832F029FDCF4C0F9A0E99200031F07B
:103BA000CFFD31F0A7FD0E9810AB984201D00DF07B
:103BB0000DFD0322C84B1A60C84B0ACB5B1A9A1042
:103BC000072B01D800F02AFD4B680393062A01D881
:103BD00000F020FD8B69332204934B692000C0491B
:103BE000059331F0ADFD200031F084FD2B22BD495D
:103BF000200031F0A5FD200031F07CFD2B22BA49D8
:103C0000200031F09DFD200031F074FD3D22B749C8
:103C1000200031F095FD200031F06CFD2B22B449DD
:103C2000200031F08DFD200031F064FD2C222000B9
:103C3000B04931F085FD23680C3B1B68E318DE6F4B
:103C4000002E01D100F0E4FC337F002B00D1B7E35C
:103C50002723F15C200031F0EDFC31F05BFCA64F36
:103C6000380012F0C5FE002800D117E31F213800EC
:103C700012F026FC0690FF2800D1F3E20022002378
:103C80000E920F930023012010930DF097FC431C1C
:103C900010930F9314AB9946069A290002700E9068
:103CA000964A1800FFF75CFA4846954932F0C6FC80
:103CB000082290461CAB1A930368804406004345D3
:103CC00001D100F036FC1A9383681C9373681AA81C
:103CD0001B9343463360002373603372894B0AAEF3
:103CE0009B4606CB32F080FC20AB010018009846C2
:103CF00032F0AAFA219A2099200031F021FD824663
:103D00000322814931F01CFD0EAB310050460A936D
:103D1000FDF74AF8824601227C4931F011FD5046F8
:103D200031F0E8FC209822AB9A46984201D00DF081
:103D30004DFC1A981CAB984201D00DF047FC14982A
:103D400016AB0293984201D00DF040FC6B46197BF4
:103D500000220791002904D0069BFE3213400A007E
:103D60001A431F21380012F0C3FB03900E9800285D
:103D700001D00DF02BFC039B002B00D193E200221D
:103D800000230A920B9300230120B3600DF016FC70
:103D9000079A431C02702900584A0A900EA8B36083
:103DA0007360FFF7DDF95A490EA832F047FC0100B5
:103DB000484632F049FA5B46484606CB32F014FCDE
:103DC00001001AA832F040FA52491AA832F036FC23
:103DD0000100404632F038FA219A2099200031F053
:103DE000AFFC09A90996FCF7DFFF31F083FC2098AE
:103DF000504501D00DF0EAFB1A981CAB984201D057
:103E00000DF0E4FB1498029B984201D00DF0DEFB0C
:103E10000E9810AB984201D00DF0D8FB1F2138004E
:103E200012F04EFBFF2800D1D4E343460022187065
:103E300000230026149215934B4606AA94469E60D2
:103E4000692363441A0041464846FCF705FD414694
:103E50001F2300220B7000231A921B9306AA94467C
:103E6000692363441A001AA81C96FCF7F5FC6968DC
:103E700053468C4620932B68404663441A002968B9
:103E8000FCF706FD2449404632F0D8FB219A2099E0
:103E9000200031F055FC1AAB09A90993FCF784FF07
:103EA000142206003AE0C04698250020B83C0020C5
:103EB000A8250020AC250020B0250020B425002036
:103EC000A02500209C250020A4250020FFFFFF3F07
:103ED00088250510803900200C0F0220100F0220C9
:103EE000E01C0510141D0510401D05106C1D05106B
:103EF000AC1D0510D81D0510BC0E0220183D002079
:103F00002C1E0510303D0020B8210510B0220510F0
:103F1000941E05107C210510D41E0510BF4931F0F8
:103F20000FFC4B4630000EA90E93FCF73DFF060038
:103F30000122BB4931F004FC300031F0DBFB20985A
:103F4000504501D00DF042FB1A98002801D00DF029
:103F50003DFB1498002801D00DF038FB3322B14905
:103F6000200031F0EDFB200031F0C4FB2B22AE49E4
:103F7000200031F0E5FB200031F0BCFB2B22AB49E7
:103F8000200031F0DDFB200031F0B4FB3D22A849D8
:103F9000200031F0D5FB200031F0ACFB2B22A549ED
:103FA000200031F0CDFB200031F0A4FB2C22A249EF
:103FB000200031F0C5FB200031F09CFB29009F4A16
:103FC0000EA8FFF7CDF89E4B0EA806CB32F00CFBE7
:103FD0000100484632F038F99A4E48467268316816
:103FE00032F002FB01001AA832F02EF91B9A1A993E
:103FF000200031F0A5FB944B059A9B46FF2313400C
:1040000059461022039000934046904BFCF7C6FDA2
:10401000219A2099039831F093FB31F06BFB2098A3
:10402000504501D00DF0D2FA1A981CAB984201D03D
:104030000DF0CCFA1498029B984201D00DF0C6FA0C
:104040000E9810AB984201D00DF0C0FA29007B4ABF
:104050000EA8FFF785F87E4B0EA806CB32F0C4FA07
:104060000100484632F0F0F806CE484632F0BCFA7D
:1040700001001AA832F0E8F81B9A1A99200031F0D2
:104080005FFBFF230600049A594613404046102266
:1040900000936E4BFCF782FD219A2099300031F09D
:1040A0004FFB31F027FB2098504501D00DF08EFAE0
:1040B0001A981CAB984201D00DF088FA1498029B14
:1040C000984201D00DF082FA0E9810AB984201D0C0
:1040D0000DF07CFA2021380012F0F2F900220023C2
:1040E0000026149215934B4683469E6001200DF0E6
:1040F00065FA4A46431C93605A4602704A4653602A
:104100005B461490FF2B00D13CE220234246137003
:10411000002200231A921B9306AB9C46693262442C
:1041200041461AA81C96FCF797FB696853468C46D3
:1041300020932B68404663441A002968FCF7A8FBCB
:104140004449404632F07AFA219A2099200031F011
:10415000F7FA1AAB09A90993FCF726FE0622060016
:104160003D4931F0EDFA4B4630000EA90E93FCF7B5
:104170001BFE060001222A4931F0E2FA300031F03C
:10418000B9FA2098504501D00DF020FA049B202167
:104190001A01FF231B011A40059B38001A43D2B2B3
:1041A00012F0A6F95346696820938C462B680600E6
:1041B00063441A0040462968002E00D0C0E1FCF795
:1041C00067FB2649404632F039FA219A20992000AF
:1041D00031F0B6FA1AAB0EA90E93FCF7E5FD070015
:1041E00039221F4931F0ACFA380031F083FA2098B7
:1041F000504501D00DF0EAF91A98002801D00DF0D1
:10420000E5F91498002801D00DF0E0F90A9800288B
:1042100000D1AFE00DF0DAF9ACE0C046101F051098
:10422000B0220510281F0510141D0510401D051093
:104230005C1F05109C1F0510D81D0510483D00206F
:10424000D03C0020603D00202D0301102C270510DC
:10425000E83C0020EC1F051014200510602005101C
:1042600080200510696822AB8C469A4620932B6803
:10427000296863441A0020A8FCF70AFBE94920A832
:1042800032F0DCF9219A2099200031F059FA31F00E
:1042900031FA2098504501D00DF098F914AB9946A9
:1042A00016AB0AAE0293002200230A920B9300235E
:1042B0000120B3600DF082F969681F228C46431C0F
:1042C000B36073602B68029F634402700A901A0007
:1042D000484629681497FCF7DBFAD34B159A9B1ACA
:1042E0002B2B00D891E12C22D049484632F07CF9A2
:1042F000159A1499200031F023FA31F0FBF9149843
:10430000B84201D00DF062F969682B688C466344AD
:104310001A0029681CAF1AA81A97FCF7B9FAC24B01
:104320001B9A9B1A292B00D86FE12A22C0491AA890
:1043300032F05AF91B9A1A99200031F001FA20AB99
:10434000190098462096FCF72FFD06000722B94970
:1043500031F0F6F9300031F0CDF91A98B84201D0B9
:104360000DF034F90A98002801D00DF02FF922AB96
:1043700000269A4606CD53468A1840462093FCF7FD
:1043800087FAA94B219A9B1A092B00D83DE10A22F2
:10439000A949404632F028F9219A2099200031F0AD
:1043A000CFF931F0A7F92098504501D00DF00EF962
:1043B000300027B03CBC90469946A246AB46F0BDC3
:1043C00030001AF027FA33689C4A9B690A2193420D
:1043D00000D13FE43000984701003BE4200013F097
:1043E000A9FD002801D1FFF7A7FB95499548FCF7E7
:1043F000A5FA200013F0BAFD93483FF0FBFE934C62
:104400002378BFF35B8FDB0701D5FFF79DFB20000F
:1044100013F090FD002801D1FFF796FB8C498D48E1
:10442000FCF78CFA200013F0A1FD8B483FF0E2FE70
:104430008A4C2378BFF35B8FDB0701D5FFF78CFB3A
:10444000200013F077FD002801D1FFF785FB844998
:104450008448FCF773FA200013F088FD82483FF08F
:10446000C9FE824C2378BFF35B8FDB0701D5FFF7D2
:104470007BFB200013F05EFD002801D1FFF774FBE9
:104480007B497C48FCF75AFA200013F06FFD7A480C
:104490003FF0B0FEFFF768FB200013F04BFD002853
:1044A00001D1FFF741FB75497548FCF747FA200039
:1044B00013F05CFD73483FF09DFEFFF735FB2000D5
:1044C00013F038FD002801D1FFF726FB6E496F4835
:1044D000FCF734FA200013F049FD6D483FF08AFEE6
:1044E000FFF71AFB200013F025FD002801D1FFF78C
:1044F0000BFB68496848FCF721FA200013F036FDF1
:1045000066483FF077FEFFF7FFFA200013F012FD38
:10451000634D002801D1FFF7EFFA62492800FCF74C
:104520000DFA200013F022FD5F483FF063FEFFF715
:10453000E3FA414608321CA80DF03AF8FFF7C6FB33
:10454000FCF7A6F95949404632F078F8219A2099AB
:10455000200031F0F5F84B4609A90993FCF724FC3B
:1045600007002C22524931F0EBF81AAB0EA93800A3
:104570000E93FCF719FC31F0BDF82098504500D09F
:1045800038E639E6696853468C4620932B684046E6
:1045900063441A002968FCF77BF94649404632F02B
:1045A0004DF8219A2099200031F0CAF84B461AA9FB
:1045B0001A93FCF7F9FB060007221E4931F0C0F8F8
:1045C000300031F097F82098504501D00CF0FEFFF4
:1045D000002616E6696853468C4620932B684046B1
:1045E00063441A002968FCF753F93349404632F016
:1045F00025F8219A2099200031F0A2F831F07AF8BC
:104600002098504500D0A7E4A8E42C4825F06AFE85
:1046100025F040FE06212A4825F07CFE012128488D
:1046200025F078FE081E0510FFFFFF3F381E05101D
:10463000681E0510241E0510A02505105D0300103E
:104640007C1C0510603D0020A9030010A02500205F
:10465000C01B0510E83C0020910300109C250020A1
:10466000B81B0510D03C002079030010A4250020C1
:10467000A41C0510003D002061030010501C051013
:10468000483D0020C10300103C1C0510303D0020B7
:10469000D9030010FC1B0510183D0020F103001089
:1046A000B83C0020EC1B0510090400101C2005106C
:1046B00030200510C81F05109C1E0510EC160510B3
:1046C000F0150510F0B54E464546DE465746002328
:1046D000E0B5ED4D99462B78BBB0BFF35B8FDB07A0
:1046E00001D400F090FCE94CE94D2B78BFF35B8FCF
:1046F000DB0701D400F0A1FCE64D2B78BFF35B8F04
:10470000DB0701D400F0B2FCE34D2B78BFF35B8FE5
:10471000DB0701D400F0C3FC616818AB8C4616932C
:1047200098462368216863441A0016A8FCF7B0F87D
:10473000DA4B179A9B1A0A2B01D800F0DBFC0B22EC
:10474000D74916A831F050FFD64D179A2800169970
:1047500030F0F6FF036806000C3B1B68C318DF6FE0
:10476000002F01D100F0C9FC3B7F002B00D1CFE32B
:104770002723F95C300030F05DFF30F0CBFE169857
:10478000404501D00CF022FFC74B1F2118009B466B
:1047900011F096FE00260023002780460590012098
:1047A0009A460C930A960B970CF008FF431C1F22A5
:1047B0000C930B9343460A900270FF2B00D1D1E378
:1047C0000123059A51461A4028AB984601200592CC
:1047D0002A91289629970CF0F1FE4146431C8B60E4
:1047E0004B60B24B059A0ACB5B1A027028909A1064
:1047F000072B01D800F08BFC059B36AF4B6061683E
:1048000034AB8C469A462368504663441A002168AC
:1048100004973497FCF73CF8A549504631F00EFF59
:10482000359A3499280030F08BFF0AAB22A92293E5
:10483000FCF7BAFA07229F49060030F081FF434691
:104840002E932EAB190030000893FCF7ADFA06004A
:104850000122994930F074FF300030F04BFF34985A
:10486000B84201D00CF0B2FE616830AB8C460293C6
:104870002E932368089E63441A0030002168FCF7D9
:1048800007F830008D4931F0D9FE2F9A2E99280073
:1048900030F056FF0600059B1022504688490093D1
:1048A000884BFCF77BF9359A3499300030F048FF9B
:1048B00030F020FF3498049B984201D00CF086FE23
:1048C0002E98029B984201D00CF080FE2898002878
:1048D00001D00CF07BFE002309932021584611F0F3
:1048E000EFFD002600230027039001209B46109334
:1048F0000E960F970CF062FE431C10930F935B46CD
:10490000039A0E90027001201493129613970CF0E4
:1049100055FE616820228C46431C149313932AABE6
:1049200028932368027063441A001290216840465D
:10493000FBF7AEFF594B299A9B1A4F2B00D8D9E3AE
:1049400050226149404631F04FFE299A28992800AB
:1049500030F0F6FE12AB1CA91C93FCF725FA0600FA
:1049600006225A4930F0ECFE0EAB300022A9229309
:10497000FCF71AFA060001224F4930F0E1FE3368D5
:104980000C3B1B68F318DF6F002F00D1B5E33B7FB2
:10499000002B00D1CAE22723F95C300030F04AFE38
:1049A00030F0B8FD28982AAB984201D00CF00EFEEA
:1049B000039BFF2B00D100E31A000F2718093A4090
:1049C0000692C2B2606824A98446229121680792A7
:1049D00061440A0022A82168FBF75AFF3C4922A83B
:1049E00031F02CFE239A2299280030F0A9FE06000F
:1049F000039B3349102240460093324B8B46FCF711
:104A0000CDF83000299A289930F09AFE0600052248
:104A1000304930F095FE2B4B1022594608980097EC
:104A2000FCF7BCF830002F9A2E9930F089FE060072
:104A30000422294930F084FE079A224B59465046F9
:104A400000921022FCF7AAF83000359A349930F021
:104A500077FE224902228946060030F071FE204F7F
:104A600078683968421AD21093009B1818011B18F5
:104A700018021B1818041B185B009A18079B934216
:104A800000D33CE32EE0C04688250020583C00209F
:104A900090250020942500208C250020FFFFFF3F5B
:104AA0008825051080390020BC0E0220100F02203E
:104AB00080210510B4210510B0220510BC2105107D
:104AC0002D0301102C270510E82105103C220510AC
:104AD00094220510AC220510B4220510BC2205104A
:104AE000402200201A0094465B006344DB00C91892
:104AF00006C9300030F024FE30F0FCFD3498049BF1
:104B0000984201D00CF062FD2E9830AB029398428F
:104B100001D00CF05BFD28982AAB984201D00CF034
:104B200055FD229824AB984201D00CF04FFD6168EE
:104B300024AB8C4622932368216863441A0022A880
:104B4000FBF7A6FEDE4922A831F078FD239A2299D0
:104B5000280030F0F5FD0600039B10225946404620
:104B60000093D84BFCF71AF83000299A289930F0B6
:104B7000E7FD0522D449060030F0E2FDF0231022C3
:104B8000594608980093CF4BFCF708F830002F9A4D
:104B90002E9930F0D5FD06000422CC4930F0D0FD2E
:104BA000069B1022594650460093C64BFBF7F6FF72
:104BB0003000359A349930F0C3FD02224946060090
:104BC00030F0BEFD06CF521AD21093009B18180188
:104BD0001B1818021B1818041B185B009A18069B58
:104BE000934200D38BE21A0094465B006344DB00DF
:104BF000C91806C9300030F0A3FD30F07BFD3498B1
:104C0000049B984201D00CF0E1FC2E98029B984244
:104C100001D00CF0DBFC28982AAB984201D00CF0B4
:104C2000D5FC229824AB984201D00CF0CFFCA84FC1
:104C300039687B685B1A9A10172B00D863E2069AD2
:104C4000A44B4A611A602100A34A1CA8FEF788FA07
:104C5000A24B1D9A9B1A032B00D84BE20422A049B9
:104C60001CA831F0C1FC082291462AAB28930368A6
:104C7000814406004B4500D124E2289383682A939F
:104C80007368404629934B46336000237360337248
:104C9000944B994606CB31F0A7FC082294468444F5
:104CA0006246029B06002E9303680392634500D17F
:104CB0000EE22E9383683093736828002F93039B32
:104CC00033600023337273602F9A2E9930F038FDD1
:104CD0000600069B1022594650460093794BFBF77D
:104CE0005DFF359A3499300030F02AFD30F002FD36
:104CF0003498049B984201D00CF068FC2E98029BDB
:104D0000984201D00CF062FC28982AAB984201D05E
:104D10000CF05CFC1C981EAB984201D00CF056FCC9
:104D20000ACF5B1A9A101B2B00D8F4E1079A6E4B3E
:104D30008A611A602100684A22A8FEF711FA674BBF
:104D4000239A9B1A032B00D8D4E10422674922A896
:104D500031F04AFC07002AAB2893036808370600A5
:104D6000BB4200D1BAE1289383682A937368404616
:104D700029930023736033724B46376006CB31F0C2
:104D800033FC0700029B08372E9303680600BB42E2
:104D900000D1A9E12E9383683093736828002F9384
:104DA00000233760337273602F9A2E9930F0C8FC5D
:104DB0000600079B1022594650460093414BFBF7D3
:104DC000EDFE359A3499300030F0BAFC30F092FCA8
:104DD0003498049B984201D00CF0F8FB2E98029B6B
:104DE000984201D00CF0F2FB28982AAB984201D0EF
:104DF0000CF0ECFB229824AB984201D00CF0E6FBBF
:104E0000069B079A134399464B4605981843C0B230
:104E1000002800D178E006CC089C029B8A1820006C
:104E20002E93FBF735FD2D4B2F9A9B1A1A2B00D88A
:104E300060E11B2220002E4931F0D6FB28002F9A7A
:104E40002E9930F07DFC0400099B10225046294920
:104E500000931C4BFBF7A2FE2000359A349930F0EA
:104E60006FFC036804000C3B1B68C318DD6F002D4A
:104E700000D142E12B7F002B66D02723E95C200084
:104E800030F0D8FB30F046FB3498049B984201D0B8
:104E90000CF09CFB2E98029B984201D00CF096FBE4
:104EA0001298002801D00CF091FB0E98002801D038
:104EB0000CF08CFB0A9800281ED00CF087FB1BE03E
:104EC000C02205102C270510AC220510B4220510B5
:104ED000100F022030150020883C0020FFFFFF3F0C
:104EE000B81B0510A03C002034150020C01B051085
:104EF000D82205102D03011009983BB03CBC904608
:104F00009946A246AB46F0BD03235B42099382E774
:104F1000380019F07FFC3B68814A9B690A21934263
:104F200000D127E438009847010023E4380019F045
:104F300071FC3B687A4A9B690A21934200D12CE5B7
:104F400038009847010028E5280019F063FC2B6819
:104F5000734A9B690A21934200D190E72800984741
:104F600001008CE7616834AB8C469A462368504652
:104F700063441A00216836AE04963496FBF788FC29
:104F80006849504631F05AFB359A3499280030F080
:104F9000D7FB0AAB2E932EAB19000893FBF704FF47
:104FA00030F0A8FB3498B04201D00CF00FFB012385
:104FB0005B42099328AB98468FE4616823688C466E
:104FC000049E63441A00504621683496FBF760FC47
:104FD0005549504631F032FB359A3499280030F06B
:104FE000AFFB12AB08992E93FBF7DEFE30F082FB8D
:104FF0003498B04201D00CF0E9FA02235B420993E5
:1050000030AB029300E7280012F094FF474C0028D1
:1050100001D1FFF769FB46492000FBF78FFC280010
:1050200012F0A4FF43483FF0E5F8434D2B78BFF35F
:105030005B8FDB0701D5FFF75FFB280012F07AFFDB
:10504000002801D1FFF758FB3C493D48FBF776FCAF
:10505000280012F08BFF3B483FF0CCF83A4D2B78FC
:10506000BFF35B8FDB0701D5FFF74EFB280012F083
:1050700061FF002801D1FFF747FB34493448FBF7B3
:105080005DFC280012F072FF32483FF0B3F8324D59
:105090002B78BFF35B8FDB0701D5FFF73DFB2800C3
:1050A00012F048FF002801D1FFF736FB2B492C48AE
:1050B000FBF744FC280012F059FF2A483FF09AF809
:1050C000FFF72AFB494608322AA80CF071FAD7E507
:1050D0001022614602980CF06BFAEDE510223900BF
:1050E0002AA80CF065FA41E61022390002980CF06B
:1050F0005FFA52E61C4825F0F5F825F0CBF81900C8
:105100001A4825F007F90521184825F003F901216F
:10511000164825F0FFF80621144825F0FBF8C04694
:105120005D0300104C21051044220510583C00205E
:10513000BC2005108905001090250020CC2005100A
:10514000883C00207105001094250020D82005100F
:10515000A03C0020590500108C25002010210510CE
:10516000703C002041050010EC160510F0150510EC
:10517000F0B5C64600B5A44E040033780D00BFF369
:105180005B8F98B0DB0700D408E1A04E3378BFF303
:105190005B8FDB0700D4F0E09D4E3378BFF35B8F6D
:1051A000DB0700D4D8E0012217009A4E3378BFF312
:1051B0005B8F1F401A4200D1A4E0974E3378BFF3B3
:1051C0005B8FDB0700D48CE0944E3378BFF35B8FAA
:1051D000DB0700D474E0072C00D86DE0904A6846E5
:1051E0009049FDF7BDFF904B019A9B1A032B00D805
:1051F00003E1042268468D4931F0F6F9070008AE54
:105200000696036808370400BB4200D1E9E0069324
:1052100083680893636806A807930023636023727A
:10522000834B276006CB31F0DFF9082290460EAFA2
:105230000C97036880440400434500D1D7E00C93E9
:1052400083680E9363687B480D9343462360002375
:10525000237263600D9A0C9930F072FA30F04AFABA
:105260000C98B84201D00CF0B1F90698B04201D0C8
:105270000CF0ACF9009802AB984201D00CF0A6F902
:105280006D4B1C686D4B0ACB5B1A9A10172B00D81C
:10529000B6E04C61072C0FD9694B1968694C0B7A41
:1052A0000A792000097811F0F3FB002D00D086E088
:1052B00018B004BC9046F0BD634BA4001B599F4638
:1052C000300012F037FE002800D184E75F496048C3
:1052D000FBF734FB300012F049FE5E483EF08AFFD7
:1052E00079E7300012F026FE002800D16CE75A4919
:1052F0005A48FBF723FB300012F038FE58483EF0C6
:1053000079FF61E7300012F015FE002800D154E764
:1053100046490CA8FBF712FB524912A8FBF70EFBFB
:10532000514818AA0CA9076047608760FBF7D0FBBB
:10533000300012F01BFE4D483EF05CFF129814AB9B
:10534000984201D00CF042F90C980EAB984200D173
:1053500033E70CF03BF930E7300012F0EBFD0028AA
:1053600000D120E742493248FBF7E8FA300012F05A
:10537000FDFD40483EF03EFF15E7300012F0DAFD3B
:10538000002800D108E73C492548FBF7D7FA300050
:1053900012F0ECFD39483EF02DFFFDE6300012F032
:1053A000C9FD002800D1F0E635491E48FBF7C6FAD2
:1053B000300012F0DBFD33483EF01CFFE5E6200034
:1053C00011F092FC74E7304B67E7304B65E7304BE8
:1053D00063E7304B61E7304B5FE7304B5DE7304BC5
:1053E0005BE71022390030000CF0E2F812E741468A
:1053F000380008320CF0DCF824E72A4824F072FF69
:105400000521294824F086FFD8250020CC2500203E
:10541000D4250020DC250020E0250020D025002018
:10542000F03D0020383E0020FFFFFF3FB81B051075
:10543000203E00208039002030150020100F02206F
:10544000502100203C0E0220F4220510E01B051024
:10545000083E002019060010C81B05105C3E002005
:1054600031060010C01B0510503E00201D0A001020
:10547000A81B051049060010981B051061060010B6
:10548000841B051079060010502200207021002096
:1054900090210020602100204021002020220020B7
:1054A00030210020EC160510F0150510F0B5C646A9
:1054B00000B54F4D94B02B78BFF35B8FDB0700D462
:1054C00078E04C4C4C4B01211868FFF751FE14203A
:1054D00008F042FB494B00211868FFF749FE06CC53
:1054E00004AD8A1802A80295FBF7D2F9444B039A3F
:1054F0009A4200D178E00122424902A831F074F8C2
:10550000414B08A800229B5E404910220093404B6B
:10551000FBF744FB039C099A029BA018AB425FD0A7
:105520000499884258D908990AAEB046B14259D078
:105530000A9EB0422AD902A831F056F8040027008A
:1055400010AE0E9623680837BB422DD00E93A36889
:10555000109363680EA80F930023012127606360F6
:105560002372FCF723FC0E98B04201D00CF02EF809
:105570000898404501D00CF029F80298A84201D0C3
:105580000CF024F814B004BC9046F0BD0094002246
:10559000002108A830F05EFF0400270010AE0E9630
:1055A00023680837BB42D1D11022390030000BF0FC
:1055B000FFFFCEE7280012F0BDFC0E4C002800D102
:1055C00080E714492000FBF7B9F9280012F0CEFC5F
:1055D00011483EF00FFE75E70AAB98460899AAE716
:1055E0000F219EE70F26A4E70C4824F07BFEC0465F
:1055F000142600207C3F00203015002034150020A8
:10560000FFFFFF3FDC250510200E02202D030110B7
:105610002C2705101423051041080010EC16051066
:10562000F0B54546DE4657464E46E0B5D24C05003D
:10563000237891B0BFF35B8FDB0700D413E1CF4C2D
:105640002378BFF35B8FDB0700D4FBE0CC4C2378DF
:10565000BFF35B8FDB0700D4E3E004AB994606ABF6
:10566000049398464A460023C64E05931372337836
:10567000BFF35B8FDB0700D4AAE0C34B01211B689B
:105680009B46C24B1868FFF773FD142008F064FABC
:10569000BF4B00211868FFF76BFD012D3DD0022D97
:1056A00013D0BC4F38000EF0E1FDFA20C00008F026
:1056B00053FA0498404501D00BF088FF11B03CBC70
:1056C00090469946A246AB46F0BDB34B1B78002BE3
:1056D00000D0E3E0B14D6A682B68D11A8A100F2917
:1056E00000D83FE1AE4A01269246AA4F0AACB2006A
:1056F000D3589946012E00D127E1022E00D1D5E0E2
:105700005B460A934B4663600423220000933800F3
:10571000A449EB3311F012FEC4E7A04D2B686A6870
:10572000934200D122E1A04E0AAC30000FF0D2F932
:105730009E4B10229E4900902000FBF72FFA48460E
:105740000B9A0A9930F050FF0A980CAB984201D09E
:105750000BF03CFF904B1B78002B00D0C8E08D4B2A
:1057600001269A465F462B686A68D21A9210B242A6
:1057700000D8B9E0B200D3589B46012E10D0276064
:105780006360022E00D17FE004232200009349468B
:105790005046EB3311F0D2FD032E17D1574681E767
:1057A0002000804A8349FDF7DBFC5B46039304231A
:1057B000784800932100EB3302AA029711F0BEFD56
:1057C0000A980CAB984201D00BF000FF0136CAE7F3
:1057D000300012F0AFFB002800D14EE7754B0AAC49
:1057E00006CB20008A180CAF0A97FBF751F87249D4
:1057F000200030F023FF6B4B200006CB30F0F4FE8E
:1058000001006E4830F020FD300012F0AFFB6C4814
:105810003EF0F0FC0A98B84200D12EE70BF0D6FE1D
:105820002BE7200012F086FB002800D115E7654920
:105830006548FBF783F8200012F098FB63483EF0C0
:10584000D9FC0AE7200012F075FB002800D1FDE624
:105850005F495448FBF772F8200012F087FB5D485F
:105860003EF0C8FCF2E6200012F064FB002800D1F4
:10587000E5E659494F48FBF761F8200012F076FB46
:1058800056483EF0B7FCDAE60423220000934E4966
:105890004048EB3311F052FD013664E7474B504866
:1058A00006CB2FF04DFF2FF025FF13E751462000C8
:1058B000FBF744F85B4602934B46039304233800FE
:1058C00000932100EB3302AA11F038FD0A980CABCB
:1058D000984201D00BF07AFE2B686A680136D21A22
:1058E0009210B24200D902E731003E4824F012FD86
:1058F000304B3B4806CB2FF023FF2A4B06CB2FF033
:105900001FFF0700012238492FF01AFF2E4B3800E5
:1059100006CB2FF015FF036807000C3B1A684A23DB
:105920008218D16899430B0008210B43D3602F499B
:1059300002222FF005FF30000FF0CCF801003800F4
:1059400030F0D2F82FF0D6FE09E75B4623604B46D5
:10595000636004232200009338001649EB3311F0F2
:10596000EDFCB9E703211F4824F0D4FC00221D48B8
:10597000110024F0CFFCC046BC250020C825002023
:10598000C0250020C425002044150020301500202B
:10599000341500203C0E0220280F0220882600200B
:1059A00054180510D83D0020000902202C270510AE
:1059B0002D030110903D002040230510C03D002024
:1059C000E107001030230510A83D0020F907001062
:1059D00028230510110800101C23051029080010A9
:1059E00080390020F0150510DC250510901E0510EB
:1059F000F0B5C64600B5274E0021300086B00FF046
:105A000023F8041E41D00122234B01211A70234B9D
:105A100002AD18689846FFF7ABFB142008F09CF81D
:105A20001F4F00213868FFF7A3FB2A001D4B00958C
:105A300003CB03C21B786846137009236A4601939F
:105A4000002301215374FCF7B1F90098A84201D05A
:105A50000BF0BCFD0120FFF7E3FDFA20800008F009
:105A60007BF8434601211868FFF782FB142008F0F9
:105A700073F838680021FFF77BFB30000FF032F835
:105A8000200006B004BC9046F0BD0220FFF7C8FD20
:105A9000F6E7C04600090220230F0220301500203F
:105AA0003415002048230510F0B5DE4657464E4613
:105AB0004546E0B5F04CE5B02378BFF35B8FDB07DC
:105AC00001D400F04AFEED4C2378BFF35B8FDB0777
:105AD00001D400F02FFEEA4C2378BFF35B8FDB0785
